:020000040800F2
:10000000F0080020A1010008CF100008ED0D000845
:10001000CD100008AD020008A91300080000000080
:1000200000000000000000000000000003130008B2
:10003000AF020008000000000113000805130008CB
:10004000BB010008BB010008BB010008BB010008A0
:10005000BB010008BB010008BB010008BB01000890
:10006000BB010008BB010008BB010008BB01000880
:10007000BB010008BB010008BB010008BB01000870
:10008000BB010008BB010008BB010008BB01000860
:10009000BB010008BB010008BB010008BB01000850
:1000A000BB010008BB010008BB010008BB01000840
:1000B000BB010008BB010008BB010008BB01000830
:1000C000BB010008BB010008BB010008BB01000820
:1000D000BB010008BB010008BB010008BB01000810
:1000E000BB010008BB010008BB010008BB01000800
:1000F000BB010008BB010008BB010008BB010008F0
:10010000BB010008BB010008BB010008BB010008DF
:10011000BB010008BB010008BB010008BB010008CF
:10012000BB010008BB010008BB010008BB010008BF
:10013000BB0100080000000000000000BB01000837
:10014000BB010008BB010008BB010008BB0100089F
:10015000BB010008BB010008BB010008BB0100088F
:10016000BB010008BB010008BB010008BB0100087F
:10017000BB010008BB0100080000000000000000F7
:10018000BB010008BB010008DFF810D000F07CF8CC
:1001900000480047E9130008AFF30080F008002092
:1001A0000648804706480047FEE7FEE7FEE7FEE711
:1001B000FEE7FEE7FEE7FEE7FEE7FEE78D13000839
:1001C000890100082DE9F05F0546002092469B4614
:1001D00088460646814640241BE02846414647465D
:1001E000224600F041F853465A46C01A914110D3B6
:1001F00011461846224600F028F82D1A67EB010830
:100200004F4622460120002100F01FF817EB00099D
:100210004E41201EA4F10104DFDC484631462A4647
:100220004346BDE8F09FD2B201E000F8012B491E21
:10023000FBD270470022F6E710B513460A46044683
:100240001946FFF7F0FF204610BD202A04DB203AB4
:1002500000FA02F1002070479140C2F1200320FA19
:1002600003F3194390407047202A04DB203A21FA17
:1002700002F00021704721FA02F3D040C2F12002BF
:100280009140084319467047064C074D06E0E06868
:1002900040F0010394E8070098471034AC42F6D3CD
:1002A000FFF776FFB81C0008D81C0008FEE770476F
:1002B000704700002DE9F84F00224FF00108032598
:1002C0004FF00F0E0B6808FA02F42340A3426ED1E0
:1002D0004E68012E05D0022E03D0112E01D0122E11
:1002E00012D186684FEA420C05FA0CF7BE43CF687C
:1002F00007FA0CF7374387604668A6430C79C4F3C6
:100300000014944034434460C668570005FA07FC63
:100310008C6826EA0C06BC403443C4604C68022C4E
:1003200001D0122C13D1D40800EB8404A346D4F8D6
:10033000209054074FEAD46A0EFA0AF629EA060911
:100340000E6906FA0AF646EA0906CBF82060066846
:100350000C7926EA0C0604F00304BC403443046024
:100360004C68E40065D5364C266846F48046266025
:10037000246822F0030604F480440094314C344491
:10038000A446D4F808489607370F0EFA07F6B44388
:100390002D4EB04201D1002624E02C4EB04201D1B6
:1003A00001261FE02A4EB04202D102261AE040E0A8
:1003B000284EB04201D1032614E0274EB04201D1AD
:1003C00004260FE0254EB04201D105260AE0244E56
:1003D000B04201D1062605E0224EB04201D10726E7
:1003E00000E00826BE402643CCF808681E4E34685C
:1003F0004F689C43FF0300D51C4334601A4C241DF6
:1004000026684F689E43BF0300D51E432660164EE4
:10041000083634684F689C43FF0200D51C433460A3
:10042000114E0C3634684F689C43BF0200D51C4304
:100430003460521C102AFFF445AFBDE8F88F00006D
:1004400044380240003001400000024000040240F5
:1004500000080240000C024000100240001402405C
:1004600000180240001C0240003C01400148806826
:10047000704700000000002070B5040025D094F8FB
:100480003D00002520B984F83C50204600F04EF98C
:10049000242084F83D002068016821F001010160FA
:1004A0002068016841F4004101602068016821F47E
:1004B0000041016000F096FA4D4A6168914201D80E
:1004C0004C4900E04C49884201D2012070BD4B49A3
:1004D0002368B0FBF1F15E6826F03F060E435E60D4
:1004E0006368934206D94FF4967359434FF47A7375
:1004F000B1FBF3F12368491C1E6A26F03F06314325
:1005000019626168914210D84900401EB0FBF1F2B7
:10051000521CC2F30B02042A01D2042022E0B0FBD9
:10052000F1F0401CC0F30B001CE0A268F2B301EB39
:10053000C10303EB0116431EB3FBF6F35B1C43F44C
:1005400080431B0549D092B301EBC10202EB0111BC
:10055000401EB0FBF1F0401CC0F30B0040F48040A3
:1005600040F400402168CA694CF6FF739A43104377
:10057000C861D4E9071001432068026822F0C00274
:1005800011430160D4E9030101432068826848F205
:10059000FF339A4311438160D4E905010843216880
:1005A000CA6822F0FF021043C86001E00EE016E0C6
:1005B0002068016841F0010101602564202084F871
:1005C0003D00256384F83E50002070BD01EB4106DC
:1005D000431EB3FBF6F35B1CB3E70120C2E701EB5C
:1005E0004101401EB0FBF1F0401CC0F30B00B7E727
:1005F000A086010080841E0000093D0040420F00DB
:100600002DE9F84F1F4690468A460446DDF82890AB
:10061000FFF72CFF054694F83D0020287FD11923D1
:10062000012240492046009500F06CFC002876D15C
:1006300094F83C00012872D0012084F83C00206826
:100640000168C90703D1016841F001010160206818
:10065000016821F400610160212084F83D00102030
:1006600084F83E0000262664C4F824806785608DE7
:1006700020852D48E0622B464A465146204600F030
:10068000CDFB90B9206841698069009036E02A4628
:100690004946204600F0B5FC50B1206C042804D136
:1006A0002068016841F4007101600120BDE8F88F05
:1006B000606A216800780861606A401C6062618D30
:1006C000491E6185218D491E89B2218522685369A1
:1006D000DB435B070BD451B100781061606A401CAA
:1006E0006062608D401E6085208D401E20852A46F8
:1006F0004946204600F0E0FB0028CED1208D00289E
:10070000C5D154F83D0B016841F40071016020200F
:1007100004F81E09E67766770020C7E7FFE70220A6
:10072000C4E70000020010000000FFFF10B586B013
:10073000044614216846FFF77DFD1449206888426D
:1007400021D11348016841F0020101600068694647
:1007500000F0020005904FF44060009012200190DC
:100760000120029003200390042004900948FFF721
:10077000A1FD07481030016841F480010160006864
:1007800000F48000059006B010BD00000058004045
:100790003038024000040240024881680278114467
:1007A00081607047000000200B4810B5016841F4DB
:1007B00000710160016841F480610160016841F4E9
:1007C00080710160032000F061F8002000F006F85D
:1007D00000F024F8002010BD003C024070B50D4D23
:1007E00004464FF47A712878B1FBF0F00A490968A1
:1007F000B1FBF0F000F0E6FA48B9102C07D2002265
:100800002146501E00F022F800206C6070BD0120CF
:1008100070BD0000000000200C0000200A4808B550
:10082000016841F480410160006800F4804000905C
:100830000548001F016841F080510160006800F028
:100840008050009008BD000044380240F0B40E4BC8
:100850001B680C46C3F30223C3F10705042D00D91E
:100860000425191D072901D2002300E0DB1E012603
:1008700006FA05F1491E214099409E40761E164019
:100880003143F0BC00F091BD0CED00E0064900F0F2
:10089000070208684FF6FF03184040EA0220034AA7
:1008A00010430860704700000CED00E00000FA05FE
:1008B0002DE9F0470E46050065D0DFF81481D8F821
:1008C0000000F7B200F00F00B04207D288F80070C5
:1008D000D8F8000000F00F00B04254D128683D4C19
:1008E000810712D5400703D5206840F4E05020600E
:1008F0002878000703D5206840F460402060206815
:10090000A96820F0F000084320602878C0072DD0A7
:10091000304968680839012812D0022813D003280A
:1009200011D00968890700292DDA216821F0030117
:1009300001432160FFF79AFD814641F2883A0EE0BB
:1009400009688903EFE709688901ECE7FFF78EFD85
:10095000A0EB0901514502D90320BDE8F0872068CA
:10096000696800F00C00B0EB810FEFD1D8F80010EF
:10097000404601F00F01B14207D90770006800F04E
:100980000F00B04201D00120E7E72878400705D5E5
:100990002068E96820F4E0500843206028780007C8
:1009A00006D52068296920F4604040EAC100206033
:1009B00000F028F82168084AC1F30311515CC840CF
:1009C0000649086006480068FFF708FF0020C4E7F2
:1009D000003C0240083802402C1400080C000020A3
:1009E000040000200448054900680968044AC1F36E
:1009F0008221515CC84070470C000020083802403A
:100A00003C140008154810B5006810F00C0214489A
:100A100013D01449042A0FD0082A0ED10F4C241FDA
:100A20002268236802F03F025B0207D52068C0F30A
:100A30008810A0FB010106E0084610BD2168C1F343
:100A40008811A1FB00010023FFF7BCFB2168C1F363
:100A50000141491C4900B0FBF1F010BD08380240CB
:100A60000024F400001BB7002DE9F84F04006ED0FD
:100A70002078DFF83C93C007A9F104054AD009F1BA
:100A800004000168C1F38101012908D00068C0F3A6
:100A9000810002280AD1D9F80000400206D5286852
:100AA000800337D560680028E1D033E06068B0F596
:100AB000803F10D0B0F5A02F286810D020F48030EF
:100AC0002860286820F4802028606068A8B1FFF7BB
:100AD000CDFC06460DE0286840F48030F4E740F491
:100AE00080202860F7E700BFFFF7C0FC801B642868
:100AF00073D828688003F7D50CE0FFF7B7FC0646EB
:100B000005E000BFFFF7B2FC801B6428F0D828681E
:100B10008003F7D42078DFF89C8280074FF0000A2A
:100B20003ED5A348001D016811F00C0F08D00068E5
:100B3000C0F3810002280BD1D9F80000400207D48D
:100B40002868800716D5E068012800D112E02BE163
:100B5000E068B8B10120C8F80000FFF787FC06463E
:100B600005E000BFFFF782FC801B0228C0D8286880
:100B70008007F7D52868216920F0F80040EAC10015
:100B800028600DE0C8F800A0FFF770FC064604E0FE
:100B9000FFF76CFC801B02281FD828688007F7D459
:100BA0002078000722D5824E83486169703671B182
:100BB00001210160FFF75AFC074604E0FFF756FCED
:100BC000C01B022809D830688007F7D50EE0C0F8AE
:100BD00000A0FFF74BFC074605E082E0FFF746FC6C
:100BE000C01B02287DD830688007F7D420784007E2
:100BF00068D5DFF8BCB100270BF13C0BDBF8000037
:100C0000C0000BD4DBF8001041F08051CBF800108D
:100C1000DBF80000012700F080500090674E30683C
:100C2000C00510D4306840F480703060FFF71EFCBF
:100C3000009005E0FFF71AFC0099401A022850D8EE
:100C40003068C005F6D55A4EA0686C3601280FD022
:100C50000528306810D020F001003060306820F0A6
:100C600004003060A068B8B1FFF700FC00900FE00E
:100C7000306840F00100F4E740F004003060F7E72E
:100C8000FFF7F4FB0099411A41F28830814266D89F
:100C900030688007F4D50EE0FFF7E8FB009007E02E
:100CA000FFF7E4FB0099411A41F28830814256D89F
:100CB00030688007F4D42FB1DBF8001021F08051A8
:100CC000CBF80010A069C8B33949091D0968C1F300
:100CD000810102294AD00228504607D0C8F8600096
:100CE00000E03CE0FFF7C2FB04463BE04746C8F8A3
:100CF0006000FFF7BBFB064605E000BFFFF7B6FB51
:100D0000801B02282BD828688001F7D4D4E907017A
:100D10000843A16A2A4A490802EB0141626A41EA92
:100D20008211084394F82C1040EA0161C9F80010C0
:100D300001203866FFF79AFB044606E036E000BF64
:100D4000FFF794FB001B022809D828688001F7D51B
:100D50002CE000BFFFF78AFB001B022802D903200A
:100D6000BDE8F88F28688001F4D41FE00128F7D08F
:100D7000D9F80000E26900F48001914214D1226A9E
:100D800000F03F0191420FD147F6C071626A014005
:100D9000914209D1A26A00F44031914204D1E16A42
:100DA00000F07060884201D00120D9E70020D7E729
:100DB0000438024000004742800E47420070004065
:100DC0000000FFFF10B5401EB0F1807F01D301206D
:100DD00010BD4FF0E02460610F21601700F0E5FACC
:100DE0000020A06107202061002010BDFEE70168FF
:100DF0004A69D24352050FD46FF480624A610021E0
:100E000040F8301F202242738173026942F00402CD
:100E1000026101730120704700207047F8B5044655
:100E2000C06A1E460D461746082807D0012805D07F
:100E300010F5803F02D0206B122804D12068016891
:100E400041F480710160134600224FF001112046E9
:100E5000009600F057F840B120680068C00502D540
:100E60004FF4007020640320F8BD2069B0F5804F76
:100E70000ED00620216800EAD51040F0F00008618D
:100E800033463A460B49204600F070F878B902E044
:100E900005F0FE0000E0E8B221680861054933462C
:100EA0003A46891F204600F061F80028DCD0012076
:100EB000F8BD00000800010070B516460D46044656
:100EC0000DE02046FFF793FF08B1012070BD681CBC
:100ED00005D0FFF7CBFA801BA84207D835B12068B0
:100EE0004069C0434007ECD4002070BD002044F8A6
:100EF000300F20216173A073216941F0200121612D
:100F00002073E2E72DE9F0471E4690460D46044661
:100F1000C1F30747DDF8209008E0701C06D0FFF70A
:100F2000A5FAA0EB0900B0420FD876B12068012FD6
:100F300018D0806925EA00000004000C14D00021BC
:100F40004145EAD00020BDE8F087002044F8300F8A
:100F500020216173A073216941F020012161207378
:100F60000120F0E74069E5E70121E9E72DE9F047D5
:100F70009A4691460E46044600254FF02008C1F3DC
:100F8000074725E020684069C043400514D4206825
:100F9000016841F40071016021686FF4806048616C
:100FA000256384F83D8084F83E50206C40F00400B6
:100FB000206484F83C501FE0B9F1FF3F08D0FFF7F0
:100FC00055FAA0EB0A0149450CD8B9F1000F09D038
:100FD0002068012F13D0806926EA00000004000C6D
:100FE0000BD0CFE744F8305F84F80D80A5732069FB
:100FF00040F02000206125730120BDE8F0874069A2
:10100000EAE770B516460D4604460DE02046FFF7A8
:10101000EEFE08B1012070BD681C05D0FFF726FA6E
:10102000801BA84207D835B120684069C04300063C
:10103000ECD4002070BD002044F8300F20216173F3
:10104000A073216941F0200121612073E2E70000D3
:101050000D4808B5016841F080010160016801F0A8
:1010600080010091016841F002010160016801F016
:1010700002010091016841F001010160006800F087
:101080000100009008BD0000303802400D4810B546
:101090000B4901600C49416000214FF4804281609E
:1010A000C0E9031241618161C1610162FFF7E4F9A6
:1010B000002803D0BDE81040FFF7FAB810BD0000CB
:1010C0000058004018000020801A0600FEE7704714
:1010D0002DE9F0470024204600F0C4F8DFF85090D6
:1010E0005FF0000609EBC60000EBD400002507788E
:1010F0004FFA86F8380604EB050041B201D501220B
:1011000000E00022404600F015F878066D1C070E3E
:10111000EDB2082DEED3761CF6B2802EE2D3083461
:10112000E4B2402CDCD3BDE8F04700F0BBB80000CF
:10113000B818000870B5802817D2002915DB3F29A0
:1011400013DCCB1701EB5375C5F3C70325F0070577
:101150000124094E491B8C4006EBC000012A05D032
:10116000C15C022A05D0A143C15470BDC15C2143BA
:10117000FAE76140F8E70000EC00002010B500211C
:10118000AE2000F03FF90021202000F03BF90021C3
:10119000102000F037F90021B02000F033F90021D1
:1011A000C82000F02FF90021084600F02BF900219B
:1011B000102000F027F90021402000F023F9002141
:1011C000812000F01FF90021FF2000F01BF9002111
:1011D000A12000F017F90021A62000F013F900214A
:1011E000A82000F00FF900213F2000F00BF90021AA
:1011F000A42000F007F90021D32000F003F900211A
:10120000084600F0FFF80021D52000F0FBF800218F
:10121000F02000F0F7F80021D92000F0F3F80021C9
:10122000222000F0EFF80021DA2000F0EBF8002196
:10123000122000F0E7F80021DB2000F0E3F80021A5
:10124000202000F0DFF800218D2000F0DBF80021E5
:10125000142000F0D7F80021BDE81040AF2000F0C6
:10126000D1B80000F0B500210D4BFF260C4600223E
:1012700001280FD003EBC20580B16F5CC7F1FF07F7
:101280006F54521CD2B2802AF2D3491CC9B2082929
:10129000EDD3F0BD03EBC2056E54F2E76C54F0E7FA
:1012A000EC00002070B50B4E00242146002000F019
:1012B00013F8002506EBC5000121005D00F0A2F83F
:1012C0006D1CEDB2802DF5D3641CE4B2082CECD378
:1012D00070BD0000EC00002010B50446B031C8B26B
:1012E000002100F08FF8102040EA1410002100F0D7
:1012F00089F804F00F00BDE81040002100F082B82A
:1013000070477047FFF748BA30B593B03021684650
:10131000FEF790FF14210CA8FEF78CFF194800255A
:10132000016841F080510160006800F08050119028
:101330001548016841F4804101600068022400F40E
:101340008040119001200090000401908001CDE9BF
:10135000064006200890A820CDE9090404200B903F
:101360006846FFF781FB0CA90F2081E831004FF49C
:10137000A0500F90E002109005210CA8FFF798FAFA
:1013800013B030BD4038024000700040054801688D
:1013900041F47001016003494FF00060803908603A
:1013A0007047000088ED00E0FEE70907090E0028FD
:1013B00004DB00F1E02080F80014704700F00F001B
:1013C00000F1E02080F8141D704702E008C8121FE9
:1013D00008C1002AFAD170477047002001E001C11E
:1013E000121F002AFBD17047FFF7DEF9FFF78CFFD1
:1013F000FFF72EFEFFF74AFEFFF7C0FEFFF768FE7D
:10140000FEE7000008B5074A01B140211170507095
:101410000A2000900223034A78210348FFF7F0F8DE
:1014200008BD00001000002018000020000000008F
:101430000000000001020304060708090000000084
:101440000102030400000000000000000000000092
:10145000000000003F4000000000000000003000DD
:10146000400030004000000009000BC03D000BC0F0
:101470003D00090018C024407FE022403180000078
:10148000180024C01B000D803240018003801C40E6
:1014900027401C8007400040100060000000000052
:1014A000000000000000000000001F8020404020DD
:1014B0000000402020401F800000000009000600BE
:1014C0001F80060009000000040004003F800400A3
:1014D0000400000000100060000000000000000098
:1014E00004000400040004000400000000000040A8
:1014F0000000000000000000002001C006003800CD
:10150000400000001F802040204020401F8000003D
:10151000000010403FC000400000000018C0214003
:1015200022402440184000001080204024402440E5
:101530001B80000002000D0011003FC001400000B0
:101540003C80244024402440238000001F8024400D
:1015500024403440038000003000200027C03800C1
:10156000200000001B802440244024401B800000F9
:101570001C0022C0224022401F800000000000000A
:1015800008400000000000000000000004600000AF
:1015900000000000000004000A001100208040400C
:1015A000090009000900090009000000000040408E
:1015B000208011000A0004001800200023402400AD
:1015C000180000001F802040274029401F400000D5
:1015D000004007C039000F0001C0004020403FC05C
:1015E000244024401B8000001F80204020402040D9
:1015F0003080000020403FC0204020401F8000007D
:1016000020403FC024402E4030C0000020403FC05A
:1016100024402E00300000000F00108020402240A7
:101620003380020020403FC0040004003FC020403F
:10163000204020403FC0204020400000006020208B
:1016400020203FC02000200020403FC024400B004D
:1016500030C0204020403FC020400040004000C03B
:101660003FC03C0003C03C003FC0000020403FC0E2
:101670000C4023003FC020001F802040204020401D
:101680001F80000020403FC02440240018000000BC
:101690001F802140214020E01FA0000020403FC0CB
:1016A0002440260019C0004018C024402440224095
:1016B00031800000300020403FC02040300000005A
:1016C00020003F80004000403F80200020003E007E
:1016D00001C0070038002000380007C03C0007C0E8
:1016E00038000000204039C0060039C0204000000A
:1016F0002000384007C0384020000000304021C0A2
:101700002640384020C00000000000007FE040205C
:1017100040200000000070000C000380004000002A
:101720000000402040207FE000000000000020007A
:101730004000200000000000001000100010001009
:101740000010001000000000400000000000000039
:10175000000002800540054003C0004020003FC05B
:101760000440044003800000000003800440044063
:101770000640000000000380044024403FC00040B9
:1017800000000380054005400340000000000440C5
:101790001FC0244024402000000002E005500550F6
:1017A0000650042020403FC00440040003C0004015
:1017B0000000044027C0004000000000001000109E
:1017C000041027E00000000020403FC00140070057
:1017D00004C00440204020403FC0004000400000C2
:1017E00007C0040007C0040003C00000044007C095
:1017F0000440040003C00040000003800440044093
:1018000003800000041007F004500440038000002F
:10181000000003800440045007F00010044007C09B
:10182000024004000400000000000640054005409E
:1018300004C00000000004001F80044000400000BD
:10184000040007800040044007C000400400070077
:1018500004C0018006000400060001C0070001C0AA
:1018600006000000044006C0010006C0044000005D
:101870000410071004E0018006000400000004408A
:1018800005C00640044000000000000004007BE0AA
:1018900040200000000000000000FFF000000000F9
:1018A000000040207BE004000000000040008000B9
:1018B0004000200020004000000000000000000068
:1018C0000000000000000000000000000000000018
:1018D0000000000000000000000000000000000008
:1018E00000000000000000000000000000000000F8
:1018F00000000000000000000000000000000006E2
:10190000000000000000001E00000000000000DEDB
:1019100000000000000000D800000000000000D817
:1019200000000000000000D800000000000000DE01
:1019300000000000000000FE00000000000000F6B3
:101940000000000000000072000000000000000025
:10195000000000000000007C00000000000000FE0D
:1019600000000000000000C600000000000000C6EB
:1019700000000000000000C600000000000000FEA3
:10198000000000000000007C0000000000000000DB
:10199000000000000000001E00000000000000DE4B
:1019A00000000000000000D600000000000000D68B
:1019B00000000000000000D600000000000000D67B
:1019C00000000000000000DE40000000000000FEFB
:1019D000600000000010006C70000000003000008B
:1019E0007800000000F0007C7C00000007F000FEA2
:1019F0007E0000003FF000C67F000001FFF000C63F
:101A00007F80000FFFF000C67FC0007FFFF000FE68
:101A10007FE003FFFFF0007C7FF03FFFFFF000025C
:101A20007FF83FFFFFF000067FFC3FFFFFF0001E46
:101A30007FFE3FFFFFF000BC7FFF3FFFFFF000E0B5
:101A40007FFFBFFFFF8000F87FFFFFFFFC00003E2D
:101A50007FFFFFFFE000000E7FFFFFFF000000B8E8
:101A60007FFFFFF8000000E07FFFFFF0000000FEB6
:101A70007FFFFFF00000001E7FFFFFF0000000026C
:101A80007FFFFFF0000000007FEFFFF00200000684
:101A90007FE7FFF00200000E7FE3FFF00200001C72
:101AA0007FE1FFF8030000BA7FE0FFFC030000F6CF
:101AB0007FE07FFE038000E67FE03FFF038000F6CB
:101AC0007FE03FFF83C0003E7FE03FFFC3C0000ECA
:101AD0007FE03FFFE3E000027FE03FFFF3E0000034
:101AE0007FE03FFFFBF000027FE03FFFFFF000667A
:101AF0007FE03FFFFFF800F67FE03FFFFFF800D6F2
:101B00007FE03FFFFFFC00D67FF07FFFFFFC00D6A9
:101B10007FF8FFF7FFFE00D67FFFFFF3FFFE00DE3A
:101B20003FFFFFE1FFFF008C3FFFFFE0FFCF0040E2
:101B30001FFFFFC07FC780C01FFFFFC03FC380C023
:101B40000FFFFF801FC1C0FE07FFFF000FC0C0FED8
:101B500003FFFE0007C060C001FFFC0003C020C0FF
:101B6000007FF00001C00086000F800000C000165A
:101B700000000000004000D600000000000000D679
:101B800000000000000000D600000000000000D6A9
:101B900000000000000000D600000000000000D09F
:101BA00000000000000000C000000000000000066F
:101BB000000000000000001E00000000000000DE29
:101BC00000000000000000D800000000000000D865
:101BD00000000000000000D800000000000000DE4F
:101BE00000000000000000DE00000000000000F621
:101BF0000000000000000072000000000000000073
:101C0000000000000000006200000000000000F67C
:101C100000000000000000F600000000000000D6F8
:101C200000000000000000D600000000000000D608
:101C300000000000000000DE000000000000008C3A
:101C40000000000000000000000000000000000094
:101C50000000000000000000000000000000000084
:101C60000000000000000000000000000000000074
:101C70000000000000000000000000000000000064
:101C80000000000000000000000000000000000054
:101C90000000000000000000000000000000000044
:101CA0000000000000000000000000000000000034
:101CB0000000000000000000D81C00080000002008
:101CC00018000000CA130008F01C000818000020CB
:101CD000D8080000DA13000801000000100000001E
:101CE000000000000024F4000000000000000000DC
:040000050800018965
:00000001FF
