:020000040800F2
:10000000680500209D010008071700080716000872
:1000100005170008D50200083D190008000000007F
:100020000000000000000000000000000B170008A6
:10003000B103000800000000091700080D170008B0
:10004000B7010008B7010008B7010008B7010008B0
:10005000B7010008B7010008B7010008B7010008A0
:10006000B7010008B7010008B7010008B701000890
:10007000B7010008B7010008B7010008B701000880
:10008000B7010008B7010008B701000845030008E0
:100090002D03000839030008B7010008B701000864
:1000A000B7010008B7010008B7010008B701000850
:1000B000B7010008B7010008B7010008B701000840
:1000C000B7010008B7010008B7010008B701000830
:1000D000B7010008B7010008B7010008B701000820
:1000E000B7010008B7010008B7010008B701000810
:1000F000B7010008B7010008B7010008B701000800
:10010000B7010008B7010008B7010008B7010008EF
:10011000B7010008B7010008B7010008B7010008DF
:10012000B7010008B7010008B7010008B7010008CF
:10013000B70100080000000000000000A50300084F
:100140008D03000899030008B7010008B7010008F3
:10015000B7010008B7010008B7010008B70100089F
:10016000B7010008B7010008B7010008B70100088F
:10017000B7010008B70100080000000000000000FF
:10018000B7010008B7010008DFF80CD000F090F8C4
:1001900000480047651B00086805002006488047A6
:1001A00006480047FEE7FEE7FEE7FEE7FEE7FEE75C
:1001B000FEE7FEE7FEE7FEE7951700088901000865
:1001C0002DE9F05F0546002092469B46884606468C
:1001D000814640241BE0284641464746224600F01F
:1001E00057F853465A46C01A914110D31146184643
:1001F000224600F03EF82D1A67EB01084F462246D2
:100200000120002100F035F817EB00094E41201EB7
:10021000A4F10104DFDC484631462A464346BDE8E6
:10022000F09FD2B201E000F8012B491EFBD27047CB
:100230000022F6E710B513460A4604461946FFF7B2
:10024000F0FF204610BD30B50B46014600202022AD
:10025000012409E021FA02F59D4205D303FA02F5D3
:10026000491B04FA02F52844151EA2F10102F1DC33
:1002700030BD202A04DB203A00FA02F1002070474A
:100280009140C2F1200320FA03F3194390407047D4
:10029000202A04DB203A21FA02F00021704721FADB
:1002A00002F3D040C2F12002914008431946704742
:1002B000064C074D06E0E06840F0010394E80700B3
:1002C00098471034AC42F6D3FFF762FF1C1C0008BD
:1002D0003C1C0008FEE7000030B5134AC1F30723B9
:1002E000CCB202F10801092808D2DFE800F00705C6
:1002F000080B0E1114171A001370547030BD937050
:10030000D47030BD1371547130BD9371D47130BD50
:100310000B704C7030BD8B70CC7030BD0B714C715C
:1003200030BD8B71CC7130BD14000020014800F04D
:10033000B2B9000038000020014800F0ACB900005C
:1003400038000020014800F0A6B900003800002065
:1003500000B587B000210291039100900821A0F51B
:1003600080700491FF3804D0012809D106AB054AFA
:1003700002E0044A06AB08326946034800F02CF854
:1003800007B000BD1400002038000020014800F034
:1003900082B9000060000020014800F07CB9000034
:1003A00060000020014800F076B9000060000020E5
:1003B0007047704790F82020012A07D0022A05D004
:1003C000416A41F48021416201207047006842691E
:1003D0000A43426100207047F0B590F8205004684D
:1003E000A468012D05D0022D03D0416A41F480217B
:1003F00053E014F0406F01D1E5004BD5C4F3016424
:10040000022C03D9416A41F4000146E00125A540D0
:100410001D608D684FF4C0739DB1CE6835434E6842
:1004200045EAC605066803EB0417F5514FF4C2759B
:10043000076805EB04150E697E51097D012905D079
:1004400009E00E88CD6845EA4655EBE701684E594C
:1004500046F480764E511179D2F805504FF4C676A5
:1004600041EA0525016806EB04168D511178D2F892
:1004700001204FF4C47541EA0221026805EB04151E
:100480005151006803EB0411425842F001024250FE
:100490000020F0BD416A41F4001141620120F0BD2D
:1004A00010B590F82020012A07D0022A05D0416A11
:1004B00041F480214162012010BD3B48D0F8002268
:1004C00042F00102C0F80022D0F8002222F47C524F
:1004D000C0F80022D0F800224B6A42EA0322C0F89A
:1004E00000220A7D02F01F0301229A40D0F81C323C
:1004F0009343C0F81C32CB69B3B9D0F80C329343A4
:10050000C0F80C328C894B6864F31F434C6900EBD4
:10051000C404C4F840320C890B6864F31F434C696F
:1005200000EBC404C4F84432CB69012B16D1D0F8D7
:100530000C321343C0F80C320C884B6864F31F4331
:100540004C6900EBC404C4F840320C89CB6864F3F6
:100550001F434C6900EBC404C4F844328B69002B80
:10056000D0F804320ED01343C0F804320B69002BCC
:10057000D0F8143208D01343C0F81432096A0129A4
:1005800004D008E09343EFE79343F5E7D0F81C125B
:100590001143C0F81C12D0F8001221F00101C0F87C
:1005A0000012002010BD000000640040704730B50C
:1005B00090F82040012C05D0022C03D0416A41F470
:1005C00080215DE00468002955D02469A40754D037
:1005D0004FF4D874056804EB01142D5915F0040587
:1005E000956005682D594ED0ED08556005682C5969
:1005F00004F00204D4604FF4DA74056804EB0114CB
:100600002D5905F00F05156105682D59C5F307250E
:10061000956105682C59240C54614FF4DC72046810
:1006200002EB0112A4581C700468A458240A5C70E0
:100630000468A458240C9C700468A258120EDA7046
:100640004FF4DE72046802EB0112A4581C710468B6
:10065000A458240A5C710468A458240C9C71046892
:10066000A258120EDA71006881B1016941F02001CF
:100670000161002030BDE468A8E7416A41F400113F
:100680004162012030BD6D0D1560AFE7C16841F0DA
:100690002001C160EDE72DE9F05F05460068002408
:1006A0004669D0F804908768D0F80CB0D0F810A054
:1006B000D0F81880F10748D0F90714D001218160E3
:1006C000B80703D5284600F096FA0CE0780702D563
:1006D0004FF4006407E0380702D54FF4805402E07D
:1006E000284600F087FAF80516D529684FF480707F
:1006F0008860B80503D5284600F07FFA0CE078053D
:1007000002D544F4005407E0380502D544F480448F
:1007100002E0284600F070FAF80316D529684FF475
:1007200080308860B80303D5284600F068FA0CE0F2
:10073000780302D544F4004407E0380302D544F4BA
:10074000803402E0284600F059FA300707D55FEA06
:10075000CB6004D52968102044F40074C860700789
:100760004FF0080707D55FEA0B7004D52868C7600B
:10077000284600F0BDF9B00706D52868C068800794
:1007800002D0284600F0B6F9700607D55FEACA60C5
:1007900004D52968102044F480640861B00607D5A8
:1007A0005FEA0A7004D528680761284600F0F2F96C
:1007B000F00606D528680069800702D0284600F0B8
:1007C000EAF9B00308D55FEAC96005D529681020A9
:1007D0004860284600F0E0F9F00307D55FEA0970A9
:1007E00004D528684760284600F00AFA300446D548
:1007F0005FEA497040D5F00504D55FEAC87001D0C2
:1008000044F00104B00504D55FEA887001D544F0D6
:100810000204700504D55FEA487001D544F0040471
:10082000300529D518F0700F26D008F07000402848
:1008300015D006DC102809D020280AD0302816D17F
:100840000AE050280ED0602811D10EE044F00804D0
:100850000DE044F010040AE044F0200407E044F006
:10086000400404E044F0800401E044F4807428680B
:10087000816921F070018161296804204860002CA1
:1008800005D0686A204368622846FFF78FFEBDE8FE
:10089000F09F70B5040003D094F8200010B104E07C
:1008A000012070BD204600F081F82068016821F029
:1008B0000201016000F094FA0546052604E000F00C
:1008C0008FFA401B0A2811D8206840688007F6D4A8
:1008D0002068016841F00101016000F081FA0546DD
:1008E0000BE000F07DFA401B0A2806D9606A40F44C
:1008F0000030606284F82060D2E720684068C0075A
:10090000EFD0207E0128206801683DD021F08001D1
:100910000160607E01282068016838D021F0400124
:100920000160A07E01282068016833D021F02001F9
:100930000160E07E0128206801682ED041F010019E
:100940000160207F01282068016829D021F008017A
:100950000160607F01282068016824D021F0040133
:100960000160D4E902010843D4E9041211430843A9
:100970006168491E08432168C86100206062012047
:1009800084F82000002070BD41F08001C0E741F0F4
:100990004001C5E741F02001CAE721F01001CFE78F
:1009A00041F00801D4E741F00401D9E72DE9F04313
:1009B00087B0044614216846FFF73AFC484B494883
:1009C000DFF818811968D4F800C0464A02250326CA
:1009D0000927DFF8149110300024491CC44534D194
:1009E0001960012907D1016841F0007101600068B8
:1009F00000F000700590106840F002001060106870
:100A000002AB00F0020005904FF44070CDE9000504
:100A100083E8D0006946484600F006F90222012129
:100A2000132000F04DFA132000F03CFA0122114689
:100A3000142000F045FA142000F034FA0122114687
:100A4000152000F03DFA152043E0DFF8A080C445F2
:100A500041D1D0F800C04CF0806CC0F800C0D0F894
:100A600000C001290CF0806CCDF814C0196007D1CA
:100A7000016841F000710160006800F000700590AD
:100A8000106840F002001060106802AB00F0020035
:100A900005904FF44050CDE9000583E8D000694649
:100AA000484600F0C1F8022201213F2000F008FA78
:100AB0003F2000F0F7F900220121402000F000FA69
:100AC000402000F0EFF900220121412000F0F8F968
:100AD000412000F0E7F907B0BDE8F0830064004072
:100AE000000000203038024000040240006800404E
:100AF0007047000000B5244989B0884207AB6A46B8
:100B00004FF000013BD12048FFF751FD0098009ABB
:100B1000401E1E49A2F50073C0B2013B2AD0A2F5C7
:100B20000073023B26D0A2F50073033B22D0B2F53E
:100B3000017F1FD001EB4010A2F500730188053B37
:100B4000418012D08188C180BDF81C1049BA018053
:100B5000BDF81E1049BA8180BDF8201049BA018144
:100B60009DF82210817209B000BDBDF81C1049BA71
:100B70000180F1E701EB40108188C180E8E704487B
:100B8000FFF715FDEFE7000038000020C800002047
:100B900060000020704770477047000070B5044641
:100BA00090F82000012804D0606A40F400206062C0
:100BB00018E0022084F820002068016821F001017B
:100BC000016000F00DF905460EE000BF00F008F9E5
:100BD000401B0A2808D9606A40F400306062052092
:100BE00084F82000012070BD20684068C007EDD166
:100BF000606270BD704770477047704770477047BC
:100C00007047000070B5044600F0EAF80546601C25
:100C100002D004480078044400F0E2F8401BA042EF
:100C2000FAD370BD040000202DE9F84F00224FF0E8
:100C3000010803254FF00F0E0B6808FA02F4234059
:100C4000A3426ED14E68012E05D0022E03D0112E84
:100C500001D0122E12D186684FEA420C05FA0CF729
:100C6000BE43CF6807FA0CF7374387604668A64350
:100C70000C79C4F30014944034434460C6685700B0
:100C800005FA07FC8C6826EA0C06BC403443C460B5
:100C90004C68022C01D0122C13D1D40800EB840430
:100CA000A346D4F8209054074FEAD46A0EFA0AF605
:100CB00029EA06090E6906FA0AF646EA0906CBF899
:100CC000206006680C7926EA0C0604F00304BC4098
:100CD000344304604C68E40065D5364C266846F41D
:100CE00080462660246822F0030604F480440094C1
:100CF000314C3444A446D4F808489607370F0EFA0E
:100D000007F6B4432D4EB04201D1002624E02C4E0C
:100D1000B04201D101261FE02A4EB04202D1022684
:100D20001AE040E0284EB04201D1032614E0274EDD
:100D3000B04201D104260FE0254EB04201D1052674
:100D40000AE0244EB04201D1062605E0224EB04210
:100D500001D1072600E00826BE402643CCF80868EB
:100D60001E4E34684F689C43FF0300D51C4334601B
:100D70001A4C241D26684F689E43BF0300D51E43AE
:100D80002660164E083634684F689C43FF0200D533
:100D90001C433460114E0C3634684F689C43BF02CC
:100DA00000D51C433460521C102AFFF445AFBDE847
:100DB000F88F00004438024000300140000002403B
:100DC0000004024000080240000C024000100240F3
:100DD0000014024000180240001C0240003C014088
:100DE00001488068704700000400002002488168C4
:100DF0000278114481607047040000200B4810B550
:100E0000016841F400710160016841F48061016092
:100E1000016841F480710160032000F071F8002046
:100E200000F006F800F024F8002010BD003C02405D
:100E300070B50D4D04464FF47A712878B1FBF0F08F
:100E40000A490968B1FBF0F000F006FB48B9102C24
:100E500007D200222146501E00F032F800206C60BC
:100E600070BD012070BD00000400002010000020B3
:100E70000B4882B0016841F480410160006800F4D1
:100E8000804000900648001F016841F080510160D9
:100E9000006800F080500090052002B000F030B8EB
:100EA00044380240002809DB00F01F020121914074
:100EB0004009800000F1E020C0F8001170470000F8
:100EC000F0B40E4B1B680C46C3F30223C3F10705B5
:100ED000042D00D90425191D072901D2002300E0A3
:100EE000DB1E012606FA05F1491E214099409E406D
:100EF000761E16403143F0BC00F032BD0CED00E030
:100F0000064900F0070208684FF6FF03184040EA60
:100F10000220034A10430860704700000CED00E017
:100F20000000FA052DE9F0470E46050065D0DFF810
:100F30001481D8F80000F7B200F00F00B04207D2D9
:100F400088F80070D8F8000000F00F00B04254D1CB
:100F500028683D4C810712D5400703D5206840F42E
:100F6000E05020602878000703D5206840F46040F6
:100F700020602068A96820F0F000084320602878ED
:100F8000C0072DD0304968680839012812D00228DE
:100F900013D0032811D00968890700292DDA2168A8
:100FA00021F0030101432160FFF71AFF814641F25E
:100FB000883A0EE009688903EFE709688901ECE7E0
:100FC000FFF70EFFA0EB0901514502D90320BDE850
:100FD000F0872068696800F00C00B0EB810FEFD15A
:100FE000D8F80010404601F00F01B14207D9077050
:100FF000006800F00F00B04201D00120E7E7287838
:10100000400705D52068E96820F4E05008432060D7
:101010002878000706D52068296920F4604040EA56
:10102000C100206000F038F82168084AC1F30311BC
:10103000515CC8400649086006480068FFF7F8FEA2
:101040000020C4E7003C024008380240041C0008AD
:1010500010000020080000200448054900680968C5
:10106000044AC1F38221515CC8407047100000203F
:1010700008380240141C0008044805490068096843
:10108000044AC1F34231515CC8407047100000204F
:1010900008380240141C0008154810B5006810F00C
:1010A0000C02144813D01449042A0FD0082A0ED178
:1010B0000F4C241F2268236802F03F025B0207D511
:1010C0002068C0F38810A0FB010106E0084610BDAF
:1010D0002168C1F38811A1FB00010023FFF770F81C
:1010E0002168C1F30141491C4900B0FBF1F010BD7A
:1010F000083802400024F400001BB7002DE9F84F27
:1011000004006ED02078DFF83C93C007A9F10405F5
:101110004AD009F104000168C1F38101012908D016
:101120000068C0F3810002280AD1D9F8000040020B
:1011300006D52868800337D560680028E1D033E001
:101140006068B0F5803F10D0B0F5A02F286810D0AF
:1011500020F480302860286820F4802028606068AF
:10116000A8B1FFF73DFE06460DE0286840F4803048
:10117000F4E740F480202860F7E700BFFFF730FE77
:10118000801B642873D828688003F7D50CE0FFF72C
:1011900027FE064605E000BFFFF722FE801B6428FD
:1011A000F0D828688003F7D42078DFF89C82800785
:1011B0004FF0000A3ED5A348001D016811F00C0F46
:1011C00008D00068C0F3810002280BD1D9F80000D4
:1011D000400207D42868800716D5E068012800D1AE
:1011E00012E02BE1E068B8B10120C8F80000FFF779
:1011F000F7FD064605E000BFFFF7F2FD801B022861
:10120000C0D828688007F7D52868216920F0F80041
:1012100040EAC10028600DE0C8F800A0FFF7E0FD3B
:10122000064604E0FFF7DCFD801B02281FD8286873
:101230008007F7D42078000722D5824E8348616961
:10124000703671B101210160FFF7CAFD074604E065
:10125000FFF7C6FDC01B022809D830688007F7D504
:101260000EE0C0F800A0FFF7BBFD074605E082E0F6
:10127000FFF7B6FDC01B02287DD830688007F7D481
:101280002078400768D5DFF8BCB100270BF13C0B94
:10129000DBF80000C0000BD4DBF8001041F08051F7
:1012A000CBF80010DBF80000012700F08050009020
:1012B000674E3068C00510D4306840F480703060EC
:1012C000FFF78EFD009005E0FFF78AFD0099401AB8
:1012D000022850D83068C005F6D55A4EA0686C3642
:1012E00001280FD00528306810D020F001003060B0
:1012F000306820F004003060A068B8B1FFF770FDDE
:1013000000900FE0306840F00100F4E740F0040086
:101310003060F7E7FFF764FD0099411A41F2883029
:10132000814266D830688007F4D50EE0FFF758FD9B
:10133000009007E0FFF754FD0099411A41F2883010
:10134000814256D830688007F4D42FB1DBF8001002
:1013500021F08051CBF80010A069C8B33949091DAC
:101360000968C1F3810102294AD00228504607D0FA
:10137000C8F8600000E03CE0FFF732FD04463BE0C7
:101380004746C8F86000FFF72BFD064605E000BFA2
:10139000FFF726FD801B02282BD828688001F7D490
:1013A000D4E907010843A16A2A4A490802EB01412E
:1013B000626A41EA8211084394F82C1040EA016104
:1013C000C9F8001001203866FFF70AFD044606E060
:1013D00036E000BFFFF704FD001B022809D828688B
:1013E0008001F7D52CE000BFFFF7FAFC001B0228B4
:1013F00002D90320BDE8F88F28688001F4D41FE0EB
:101400000128F7D0D9F80000E26900F48001914288
:1014100014D1226A00F03F0191420FD147F6C0710A
:10142000626A0140914209D1A26A00F440319142BE
:1014300004D1E16A00F07060884201D00120D9E750
:101440000020D7E70438024000004742800E4742A0
:10145000007000400000FFFF10B5401EB0F1807F1B
:1014600001D3012010BD4FF0E02460610F2160170F
:1014700000F076FA0020A06107202061002010BD56
:1014800070B5040004D094F83900002510B106E0CE
:10149000012070BD84F83850204600F023F8242045
:1014A00084F839002068C16821F40051C1602046E9
:1014B00000F07EF92068016921F490410161206803
:1014C000416921F02A0141612068C16841F400515D
:1014D000C160E563202084F8390084F83A000020D8
:1014E00070BD000010B586B0044614216846FEF7B2
:1014F0009FFE13492068884220D1124800210268CB
:1015000042F010020260006800F0100005900D48E3
:101510001438026842F002020260006800F0020023
:101520000590C02000900220CDE901010320039026
:101530000720049069460448FFF776FB06B010BD0B
:101540000010014044380240000402402DE9F843F5
:10155000044690F839001F4616460D46202850D103
:10156000B5B1AEB194F8380001284AD0012084F812
:1015700038004FF00008C4F83C80212084F839007E
:10158000FFF72EFCA6848146E68484F8388026E0A6
:101590000120BDE8F883E08C401EE084A0684B4643
:1015A000B0F5805F4FF000024FF0800120460097B9
:1015B00003D000F091F9E8B90DE000F08DF9C8B959
:1015C00028882168C0F308004860206908B16D1CB4
:1015D00005E0AD1C03E0216815F8010B4860E08CC4
:1015E0000028D8D14B46002240212046009700F029
:1015F00073F908B10320CCE7202084F839000020DB
:10160000C7E70220C5E7FEE70F4810B50D490160A6
:101610000321416000214FF400228160C0E90312E0
:101620004FF440124261017641768176C1760177AE
:101630004177FFF72EF9002803D0BDE81040FEF7F0
:10164000B8BE10BD00640040380000200F4810B53F
:101650000D4901600321416000214FF400228160A7
:10166000C0E903124FF4401242610176417681765F
:10167000C17601774177FFF70CF9002803D0BDE868
:101680001040FEF796BE10BD0068004060000020CC
:101690000D4808B5016841F080010160016801F062
:1016A00080010091016841F002010160016801F0D0
:1016B00002010091016841F001010160006800F041
:1016C0000100009008BD0000303802400C4810B501
:1016D0000A4901604FF4E1314160002181600C2230
:1016E000C160C0E904128161C161FFF7C9FE002831
:1016F00003D0BDE81040FEF75CBE10BD00100140F5
:1017000088000020FEE7704770477047FFF76EBB08
:1017100030B593B030216846FEF78AFD14210CA83D
:10172000FEF786FD19480025016841F080510160EF
:10173000006800F0805011901548016841F4804124
:1017400001600068022400F48040119001200090A4
:10175000000401908001CDE9064006200890A820F1
:10176000CDE9090404200B906846FFF7C7FC0CA9DB
:101770000F2081E831004FF4A0500F90E00210904C
:1017800005210CA8FFF7CEFB13B030BD4038024056
:10179000007000400548016841F470010160034990
:1017A0004FF00060803908607047000088ED00E06D
:1017B0002DE9F041044600680169E26821F44051D6
:1017C000114301612169A068E2690843616911431D
:1017D00008432168CA6849F20C639A430243CA600D
:1017E00020684169A26921F4407111434161E069B7
:1017F000192764253226B0F5004F354A354920684F
:101800004FF0000806D0884201D0904236D1FFF751
:1018100033FC35E0884201D0904202D1FFF72CFC26
:1018200001E0FFF719FC61684A18A0FB070148EBCB
:101830000803FEF7C5FC0146B0FBF5F00201B1FB61
:10184000F5F06FF01803584301EB800006EBC00081
:10185000B0FBF5F000F0F80002EB4002B1FBF5F050
:10186000584301EB800006EBC000B0FBF5F000F040
:101870000700216810448860BDE8F081FFF7ECFBA9
:1018800061688B0F8A00A0FB0701FEF799FC0146F7
:10189000B0FBF5F06FF01802504301EB800006EB4F
:1018A0000010B0FBF5F000F0F002B1FBF5F002EB38
:1018B0000012B1FBF5F06FF01803584301EB800004
:1018C00006EB0010B0FBF5F000F00F00D1E70000D0
:1018D00000140140001001402DE9F04198461746E0
:1018E0000E460446069D1DE0681C1BD02DB1FFF777
:1018F00077FAA0EB0800A84214D92068C16821F447
:10190000D071C1602068416921F00101416120204E
:1019100084F8390084F83A00002084F83800032065
:10192000BDE8F0812068006836EA000004D000209D
:10193000B842D9D00020F3E70120F9E7FEE7000024
:101940000FB4054B10B503A9044A029800F028F81B
:1019500010BC5DF814FB00004D1B00083400002093
:101960000907090E002804DB00F1E02080F80014CC
:10197000704700F00F0000F1E02080F8141D704760
:1019800002E008C8121F08C1002AFAD17047704748
:10199000002001E001C1121F002AFBD170470000A6
:1019A0002DE9FF4F89B09B460446002506E0252817
:1019B0000BD05A460B999047641C6D1C2078002868
:1019C000F5D10DB02846BDE8F08F0027B8460122BA
:1019D000474900E0074314F8013F203B02FA03F0B7
:1019E0000842F7D120782E2819D114F8010F47F0BA
:1019F00004072A280ED06FF02F022078A0F13001C2
:101A000009290CD808EB880102EB410100EB010821
:101A1000641CF2E70A98641C50F8048B0A90207842
:101A20000028CED0642808D0692806D075281ED09A
:101A30005A460B9990476D1C58E00A994FF00A09D5
:101A400001C90A91002802DA40422D2102E039053D
:101A500004D52B218DF82010012103E0F90704D0D3
:101A60002021F7E78A4608AE0DE00021FAE70A993F
:101A70004FF00A0901C90A91F7E74946FEF7E3FB6F
:101A8000303106F8011D0028F7D1ADEB060000F15A
:101A90002009780701D44FF00108C84502DDA8EB02
:101AA000090000E000208046002706E008A85A460A
:101AB000C05D0B9990476D1C7F1C5745F6DB04E019
:101AC00030205A460B9990476D1CB8F10001A8F1DF
:101AD0000108F5DC05E016F8010B5A460B99904712
:101AE0006D1CB9F10001A9F10109F4DC641C65E782
:101AF0000928010000B58BB000200121019002905F
:101B000008910590CDE90601049000900390694684
:101B10000C48FEF7C5FC0B48FFF740F802210948C6
:101B2000FEF748FC0E200590099069460648FEF72E
:101B3000B7FC0548FFF732F802210348FEF73AFCEC
:101B40000BB000BD380000206000002013B54FF638
:101B5000FF73012269460248FFF7F8FC00981CBD9C
:101B60008800002008B5FFF749F9FFF7D1FDFFF71E
:101B70008FFDFFF749FDFFF7A9FDFFF767FDFFF7B1
:101B8000B9FF40F6C4110120FEF7A6FB4FF4FA712D
:101B90000520FEF7A1FB0A4C4FF400752846FEF71E
:101BA000D7FBA07A0090B4F90830B4F90420B4F956
:101BB000001004A0FFF7C4FE0A20FFF723F8EDE7AA
:101BC000C8000020416E676C65203D2025640D0A29
:101BD0005370656564203D2025640D0A476976656C
:101BE0006E5F43757272656E74203D2025640D0A28
:101BF00054656D706572617465203D2025640D0A21
:101C000000000000000000000000000001020304CA
:101C10000607080900000000010203043C1C00083C
:101C2000000000203800000080190008741C000823
:101C30003800002030050000901900080000000066
:101C40000100000010000000000000000024F4006B
:101C50000000000000000000000000000000000084
:101C60000000000000000000000000000000000074
:041C70000000000070
:040000050800018965
:00000001FF
