:020000040800F2
:1000000008070020A10100088B19000875180008D6
:100010008919000827070008AD1D0008000000002E
:100020000000000000000000000000008F19000820
:10003000F1070008000000008D1900089119000860
:10004000BB010008BB010008BB010008BB010008A0
:10005000BB010008BB010008BB010008BB01000890
:10006000BB010008BB010008BB010008BB01000880
:10007000BB010008BB010008BB010008BB01000870
:1000800029070008BB010008BB010008BB010008EC
:10009000BB010008BB010008BB010008BB01000850
:1000A000BB010008BB010008BB010008BB01000840
:1000B000BB010008BB010008BB010008BB01000830
:1000C000BB010008BB010008BB010008BB01000820
:1000D000BB0100085D1D0008691D0008BB01000888
:1000E000BB010008BB010008BB010008BB01000800
:1000F000BB010008BB010008BB010008BB010008F0
:10010000BB010008BB010008BB010008BB010008DF
:10011000BB010008BB010008BB010008BB010008CF
:10012000BB010008BB01000835070008BB0100083F
:10013000BB0100080000000000000000BB01000837
:10014000BB010008BB010008BB010008BB0100089F
:10015000BB010008BB01000841070008BB01000803
:10016000BB010008BB010008BB010008BB0100087F
:10017000BB010008BB0100080000000000000000F7
:10018000BB010008BB010008DFF810D000F04AFAFC
:1001900000480047D9270008AFF300800807002077
:1001A0000648804706480047FEE7FEE7FEE7FEE711
:1001B000FEE7FEE7FEE7FEE7FEE7FEE7191A0008A6
:1001C000890100082DE9F05F0546002092469B4614
:1001D00088460646814640241BE02846414647465D
:1001E000224600F057F853465A46C01A914110D3A0
:1001F00011461846224600F03EF82D1A67EB01081A
:100200004F4622460120002100F035F817EB000987
:100210004E41201EA4F10104DFDC484631462A4647
:100220004346BDE8F09FD2B201E000F8012B491E21
:10023000FBD270470022F6E710B513460A46044683
:100240001946FFF7F0FF204610BD30B50B460146BA
:1002500000202022012409E021FA02F59D4205D365
:1002600003FA02F5491B04FA02F52844151EA2F10F
:100270000102F1DC30BD202A04DB203A00FA02F151
:10028000002070479140C2F1200320FA03F3194384
:1002900090407047202A04DB203A21FA02F0002126
:1002A000704721FA02F3D040C2F120029140084386
:1002B000194670472DE9FE4F804681EA0300C00FC2
:1002C0000C46009021F0004123F00045B8EB0200FD
:1002D000A94105D24046214690461C460B4602469F
:1002E00023F00040104347D0270DC7F30A00C3F3A3
:1002F0000A510290401A019040286BDAC3F31300B0
:1003000040F4801B0098924620B10023D2EB030AF0
:1003100063EB0B0B01985946C0F140025046FFF7C2
:10032000AAFF06460D4650465946019A00F08CF940
:1003300010EB08006141002487EA115284EAE77358
:100340001A4340D0009A62B3019A012A4FEA075239
:1003500015DC001B61EB02014FF0004202EA07527C
:10036000CDE90042001C41F5801132462B4600F0D9
:100370008CF903B0BDE8F08F40462146F9E7001B39
:1003800061EB0201001C41F5801300185B4120184D
:10039000A2F5001747EB030140EAD570B6196D418D
:1003A00011E06D084FEA360645EAC0754FEA07527C
:1003B000001B61EB0201001C41F5801149084FEA66
:1003C00030000019514132462B4603B0BDE8F04FD2
:1003D00000F04CB90098012240000023D0EB02024B
:1003E00063EBE073009821464FEAE074B8EB00003D
:1003F00061EB0401E9E783F000435BE781F0004132
:1004000058E72DE9FE4F81EA030404F0004421F08F
:10041000004100944FF0000B23F0004350EA010428
:100420005ED052EA03045BD0C3F30A54C1F30A5509
:100430002C44A4F2F3340194A0FB0254C1F3130141
:1004400041F48011C3F3130343F4801301FB02440E
:1004500000FB034E840A970A44EA815447EA835713
:10046000A4FB076802958D0A05FB07854FEA932CCC
:1004700004FB0C542705029D4FEA065847EA16373D
:10048000B5EB08056EEB070C870E920E47EA811755
:1004900042EA8312A7FB0201B6EB0B0164EB0004F6
:1004A0002B0D43EA0C335E1844EB1C50DA465146E0
:1004B000E7FB0201C5F313044FEA0B3343EA14537D
:1004C0004FEA0432019C43EA0603A4F10C040294AF
:1004D000009CCDE900B400F0D8F803B0BDE8F08F7F
:1004E00000200146F9E72DE9F04D81EA030404F00C
:1004F000004B21F0004514464FF0000A23F0004164
:1005000050EA050220D054EA01021DD0C5F30A5773
:100510000246C5F31303C1F31300C1F30A5640F4B6
:10052000801543F48013A7EB0608101BD64608F28B
:10053000FD3873EB050002D308F1010801E09218C1
:100540005B41B8F1000F03DA00200146BDE8F08DF1
:1005500000204FF48011064684460EE0171B73EB13
:10056000050705D3121B63EB050306434CEA010C98
:1005700049084FEA300092185B4150EA0107EDD17B
:1005800052EA030012D082EA040083EA050108431C
:1005900005D0101BAB4106D20122002306E0002249
:1005A0004FF0004302E06FF0010253101AEB060017
:1005B0004CEB085110EB0A0041EB0B01BDE8F04D8C
:1005C00000F054B8C1F30A52C1F3130140F2FF33F3
:1005D00041F480119A4202DA00200146704740F24D
:1005E00033439A42A2F2334202DC5242FFF752BE38
:1005F000FFF741BE30B5041E71F1000404DB4FF07B
:100600000044404264EB0101141E73F1000405DB59
:100610001C464FF00043524263EB0403994208BF6B
:10062000904230BD064C074D06E0E06840F0010303
:1006300094E8070098471034AC42F6D3FFF7A8FDC2
:10064000D0290008F0290008202A06DBCB17203A21
:1006500041FA02F043EAE07306E041FA02F3D040C7
:10066000C2F12002914008431946704710B5141E8C
:1006700073F1000408DA401C41F1000192185B415B
:100680001A4301D120F0010010BD2DE9F04D924632
:100690009B4611B1B1FA81F202E0B0FA80F2203249
:1006A0009046FFF7E8FD04460F4640EA0A0041EA9B
:1006B0000B0153465A46084313D0114653EA010032
:1006C00019D0C8F140025046FFF7E4FD05460E463A
:1006D000504659464246FFF7CEFD084305D001205B
:1006E00004E020463946BDE8F08D0020054346EA87
:1006F000E0762C4337430A986305E40AA0EB080030
:100700000022FD0A44EA47540A3002D5002001467F
:10071000E9E7010510196941DDE90845001969415A
:10072000BDE8F04DA2E7FEE7014800F0BDB80000CB
:10073000A8020020014800F0B7B80000E80100203E
:10074000014800F0B1B800004802002001681823F9
:10075000CAB2103AB2FBF3F2054B6FF30901032A58
:100760009B5CC36500D9091D816508467047000080
:100770005029000810B5014600208B698A6A4FF0A5
:10078000C07453B1B3F5005F15D072B1012A0CD01B
:10079000022A0AD0032A09D104E01AB1012A06D09C
:1007A000022A03D1C96AC90100D5012010BDC96A56
:1007B000A142FAD010BD002AF7D0012AF2D0022AB5
:1007C000F3D0032AF3D010BD30B50468256825F4B2
:1007D00080252560046863608368402B036803D02C
:1007E00099600068C26030BD9A600068C16030BD29
:1007F000704770472DE9F0410446876D00F0B4FA68
:10080000064694F835000025022806D08020606551
:1008100084F834500120BDE8F0812068016821F09F
:10082000160101602068416921F080014161206C5E
:1008300008B9A06C20B12068016821F008010160AE
:100840002068016821F0010101600BE000F08CFAE2
:10085000801B052806D92020606504F8345F03203A
:100860006070D8E720680068C007EFD194F85C108A
:100870003F208840B86004F8345F01206070002099
:10088000C9E790F83510022903D080214165012085
:100890007047052180F835100068016821F00101DA
:1008A00001600020704700002DE9F84304464FF036
:1008B0000009CDF8009063484FF41651A56D00680B
:1008C000B0FBF1F72E6894F85C10082000FA01F1F3
:1008D00031420FD021680A6852070BD50A6822F00E
:1008E00004020A6094F85C108840A860606D40F0D3
:1008F0000100606594F85C104FF0010808FA01F0FF
:10090000304208D021684969090604D5A860606DA5
:1009100040F00200606594F85C100420884030428A
:1009200008D021680968890704D5A860606D40F087
:100930000400606594F85C1010208840304218D0A4
:1009400021680968090714D5A8602068016849036F
:1009500004D50068000308D5A16C07E00168C9054B
:1009600003D4016821F008010160216C09B120461F
:10097000884794F85C1020208840304231D02168AC
:100980000968C9062DD5A86094F8350005282068A7
:10099000016806D0490347D5006800031DD4616C87
:1009A0001CE021F0160101602068416921F08001FE
:1009B0004161206C08B9A06C20B12068016821F069
:1009C0000801016094F85C103F208840A86084F81A
:1009D000349084F83580216D1FE0E16B09B1204629
:1009E0008847606D00282BD0606DC00714D00520AB
:1009F00084F835002068016821F001010160009849
:100A0000401C0090B84203D820680068C007F6D1A7
:100A100084F8349084F83580E16C002910D001B05E
:100A20002046BDE8F04308470168C905D5D40168F0
:100A300021F01001016084F8349084F83580CCE70F
:100A4000BDE8F883140000202DE9F041044600F0D1
:100A50008BF906465CB1002584F83450022084F8F6
:100A600035002068016821F0010101600DE00120DE
:100A7000BDE8F08100F078F9801B052805D9202019
:100A80006065032084F83500F2E720680068C0073D
:100A9000F0D12268116820480140D4E901031843CD
:100AA000D4E903363343184363691843A3691843F1
:100AB000E3691843236A18430843616A042903D190
:100AC000D4E90B1319430843106020684069666A33
:100AD00020F0070130460E43012704280CD1A06AFC
:100AE0000643E06A40B12046FFF744FE20B14020B3
:100AF000606584F83570BAE7206846612046FFF7E4
:100B000025FE94F85C203F2191408160656584F862
:100B100035700020ACE700003F8010F02DE9F04177
:100B20000446866D90F83400002501280DD0012080
:100B300084F8340094F835700020012F07D084F831
:100B4000340002252846BDE8F0810220FBE7022799
:100B500084F8357060652046FFF736FE94F85C1027
:100B60003F208840B0602068016841F016010160B4
:100B7000206C20B12068016841F008010160206804
:100B8000016841F001010160DCE7000070B5044636
:100B900000F0EAF80546601C02D0044800780444DE
:100BA00000F0E2F8401BA042FAD370BD080000201C
:100BB0002DE9F84F00224FF0010803254FF00F0EEA
:100BC0000B6808FA02F42340A3426ED14E68012E4E
:100BD00005D0022E03D0112E01D0122E12D186681C
:100BE0004FEA420C05FA0CF7BE43CF6807FA0CF740
:100BF000374387604668A6430C79C4F300149440D9
:100C000034434460C668570005FA07FC8C6826EA3E
:100C10000C06BC403443C4604C68022C01D0122C3A
:100C200013D1D40800EB8404A346D4F820905407D1
:100C30004FEAD46A0EFA0AF629EA06090E6906FA9C
:100C40000AF646EA0906CBF8206006680C7926EA1F
:100C50000C0604F00304BC40344304604C68E40018
:100C600065D5364C266846F480462660246822F016
:100C7000030604F480440094314C3444A446D4F870
:100C800008489607370F0EFA07F6B4432D4EB042C8
:100C900001D1002624E02C4EB04201D101261FE0F4
:100CA0002A4EB04202D102261AE040E0284EB0425D
:100CB00001D1032614E0274EB04201D104260FE0F3
:100CC000254EB04201D105260AE0244EB04201D1A2
:100CD000062605E0224EB04201D1072600E0082694
:100CE000BE402643CCF808681E4E34684F689C43CB
:100CF000FF0300D51C4334601A4C241D26684F683E
:100D00009E43BF0300D51E432660164E0836346846
:100D10004F689C43FF0200D51C433460114E0C36D3
:100D200034684F689C43BF0200D51C433460521C9A
:100D3000102AFFF445AFBDE8F88F000044380240A8
:100D40000030014000000240000402400008024060
:100D5000000C024000100240001402400018024043
:100D6000001C0240003C01400148806870470000C0
:100D700008000020024881680278114481607047B1
:100D8000080000200B4810B5016841F400710160B3
:100D9000016841F480610160016841F48071016083
:100DA000032000F06FF8002000F006F800F024F8AF
:100DB000002010BD003C024070B50D4D04464FF4BC
:100DC0007A712878B1FBF0F00A490968B1FBF0F0BC
:100DD00000F004FB48B9102C07D200222146501E17
:100DE00000F030F800206C6070BD012070BD000084
:100DF00008000020140000200A4808B5016841F4EA
:100E000080410160006800F4804000900548001FA8
:100E1000016841F080510160006800F0805000904E
:100E200008BD000044380240002809DB00F01F0222
:100E3000012191404009800000F1E020C0F800113C
:100E400070470000F0B40E4B1B680C46C3F302233E
:100E5000C3F10705042D00D90425191D072901D266
:100E6000002300E0DB1E012606FA05F1491E2140A1
:100E700099409E40761E16403143F0BC00F0AABF58
:100E80000CED00E0064900F0070208684FF6FF038A
:100E9000184040EA0220034A1043086070470000EF
:100EA0000CED00E00000FA052DE9F0470E460500C4
:100EB00065D0DFF81481D8F80000F7B200F00F0019
:100EC000B04207D288F80070D8F8000000F00F0098
:100ED000B04254D128683D4C810712D5400703D554
:100EE000206840F4E05020602878000703D520688F
:100EF00040F4604020602068A96820F0F0000843BA
:100F000020602878C0072DD030496868083901284A
:100F100012D0022813D0032811D0096889070029AC
:100F20002DDA216821F0030101432160FFF71CFF46
:100F3000814641F2883A0EE009688903EFE70968C3
:100F40008901ECE7FFF710FFA0EB0901514502D939
:100F50000320BDE8F0872068696800F00C00B0EB62
:100F6000810FEFD1D8F80010404601F00F01B142D7
:100F700007D90770006800F00F00B04201D00120CF
:100F8000E7E72878400705D52068E96820F4E050B5
:100F9000084320602878000706D52068296920F4D6
:100FA000604040EAC100206000F038F82168084A3B
:100FB000C1F30311515CC840064908600648006847
:100FC000FFF7FAFE0020C4E7003C02400838024068
:100FD00058290008140000200C000020044805498E
:100FE00000680968044AC1F38221515CC840704717
:100FF0001400002008380240682900080448054908
:1010000000680968044AC1F34231515CC840704726
:10101000140000200838024068290008154810B55F
:10102000006810F00C02144813D01449042A0FD0A1
:10103000082A0ED10F4C241F2268236802F03F02B9
:101040005B0207D52068C0F38810A0FB010106E011
:10105000084610BD2168C1F38811A1FB00010023DF
:10106000FFF7B0F82168C1F30141491C4900B0FB0A
:10107000F1F010BD083802400024F400001BB70056
:101080002DE9F84F04006ED02078DFF83C93C007BC
:10109000A9F104054AD009F104000168C1F38101F6
:1010A000012908D00068C0F3810002280AD1D9F8CC
:1010B0000000400206D52868800337D56068002804
:1010C000E1D033E06068B0F5803F10D0B0F5A02FDC
:1010D000286810D020F480302860286820F4802010
:1010E00028606068A8B1FFF73FFE06460DE028685B
:1010F00040F48030F4E740F480202860F7E700BF38
:10110000FFF732FE801B642873D828688003F7D568
:101110000CE0FFF729FE064605E000BFFFF724FEBE
:10112000801B6428F0D828688003F7D42078DFF883
:101130009C8280074FF0000A3ED5A348001D01683D
:1011400011F00C0F08D00068C0F3810002280BD109
:10115000D9F80000400207D42868800716D5E06857
:10116000012800D112E02BE1E068B8B10120C8F8F5
:101170000000FFF7F9FD064605E000BFFFF7F4FDAC
:10118000801B0228C0D828688007F7D52868216905
:1011900020F0F80040EAC10028600DE0C8F800A087
:1011A000FFF7E2FD064604E0FFF7DEFD801B0228A4
:1011B0001FD828688007F7D42078000722D5824EF0
:1011C00083486169703671B101210160FFF7CCFD80
:1011D000074604E0FFF7C8FDC01B022809D83068A5
:1011E0008007F7D50EE0C0F800A0FFF7BDFD074669
:1011F00005E082E0FFF7B8FDC01B02287DD830680B
:101200008007F7D42078400768D5DFF8BCB1002705
:101210000BF13C0BDBF80000C0000BD4DBF8001036
:1012200041F08051CBF80010DBF80000012700F0FE
:1012300080500090674E3068C00510D4306840F48C
:1012400080703060FFF790FD009005E0FFF78CFDA7
:101250000099401A022850D83068C005F6D55A4E79
:10126000A0686C3601280FD00528306810D020F017
:1012700001003060306820F004003060A068B8B130
:10128000FFF772FD00900FE0306840F00100F4E7D6
:1012900040F004003060F7E7FFF766FD0099411A5F
:1012A00041F28830814266D830688007F4D50EE07C
:1012B000FFF75AFD009007E0FFF756FD0099411A2D
:1012C00041F28830814256D830688007F4D42FB17B
:1012D000DBF8001021F08051CBF80010A069C8B3F2
:1012E0003949091D0968C1F3810102294AD0022840
:1012F000504607D0C8F8600000E03CE0FFF734FD3E
:1013000004463BE04746C8F86000FFF72DFD06465F
:1013100005E000BFFFF728FD801B02282BD82868B6
:101320008001F7D4D4E907010843A16A2A4A490891
:1013300002EB0141626A41EA8211084394F82C10E1
:1013400040EA0161C9F8001001203866FFF70CFD82
:10135000044606E036E000BFFFF706FD001B02284A
:1013600009D828688001F7D52CE000BFFFF7FCFC06
:10137000001B022802D90320BDE8F88F28688001ED
:10138000F4D41FE00128F7D0D9F80000E26900F496
:101390008001914214D1226A00F03F0191420FD1A5
:1013A00047F6C071626A0140914209D1A26A00F415
:1013B0004031914204D1E16A00F07060884201D06E
:1013C0000120D9E70020D7E7043802400000474257
:1013D000800E4742007000400000FFFF10B5401E25
:1013E000B0F1807F01D3012010BD4FF0E024606197
:1013F0000F21601700F0EEFC0020A06107202061A3
:10140000002010BD10B504460068416994F83920E9
:10141000C1F3C011212A0BD151B1416921F08001E2
:101420004161206B08B1FFF7E5F9204600F07CFB35
:101430002068416994F83A20C1F38011222A0BD127
:1014400051B1416921F040014161606B08B1FFF782
:10145000D1F9204600F05AFB002010BD7047000073
:1014600070B5026804461068D168536910F00F0F18
:1014700052D003F0010501F490762E435FD0C207ED
:1014800005D0CA0503D5E26B42F00102E2634207D0
:1014900005D5DA0703D0E26B42F00202E26382076D
:1014A00005D5DA0703D0E26B42F00402E2630207DB
:1014B00007D501F020022A4303D0E26B42F0080274
:1014C000E263E26B002A33D0800604D5880602D599
:1014D000204600F032FB20684069E16BC0F38010C9
:1014E000090700D428B3204600F010FB20684169AA
:1014F00049061AD5416921F040014161606BA0B1F4
:101500001B490165606BFFF7BCF9002810D0606BC8
:10151000016DBDE870400847830610D58B060ED5D7
:101520002046BDE8704000F008BB2046FFF796FF5C
:1015300070BD2046FFF792FF0020E06370BD0306F8
:1015400006D50B0604D52046BDE8704000F0D4BB9C
:101550004006F3D54806F1D5D168204621F0400178
:10156000D160202184F8391000F082F970BD0000AC
:10157000351A000870B5040004D094F8390000252D
:1015800010B106E0012070BD84F83850204600F00C
:1015900023F8242084F839002068C16821F4005120
:1015A000C160204600F014FB2068016921F49041DD
:1015B00001612068416921F02A0141612068C16808
:1015C00041F40051C160E563202084F8390084F8BB
:1015D0003A00002070BD00002DE9F04F87B00646AC
:1015E00014216846FEF726FEDFF848C1022135685F
:1015F00051480322072300248F064FF4807A4FF4CA
:1016000080684FF4403B654551D14B4D1435D5F8BA
:1016100000C04CF0100CC5F800C02D6805F0100596
:101620000595056845F002050560006800F00200B8
:101630000590C0208DE8130069464048CDE903239A
:10164000FFF7B6FA3F4D3E48B9462860C5E9017438
:10165000C5E903486C61C5E9064AC5E908B44746CF
:10166000D8462846FFF7F0F908B1FFF7C2F87563CE
:10167000AE63344D324860357830E5E802094020E9
:1016800091C5304845F814496030AC61C5E9074858
:101690006C62FFF7D9F908B1FFF7ABF835630022A8
:1016A00011462520AE63FFF7CDFB25203CE0DFF897
:1016B00098C065453AD1204D1035D5F800C04CF49E
:1016C000003CC5F800C02D6805F400350595056897
:1016D00045F001050560006800F0010005900C2050
:1016E0008DE8130069461948CDE90323FFF760FA36
:1016F000144D1748C03505F118092860C5E9017473
:10170000C5E903486C6189E8100C28466C62FFF754
:101710009BF908B1FFF76DF87563002201212620BF
:10172000AE63FFF78FFB2620FFF77EFB07B0BDE817
:10173000F08F0000001001403038024000040240E9
:1017400040640240E80100200044004000000240E4
:1017500088600240F8B5044690F83A0020283CD151
:10176000C1B3BAB394F83800012836D0012084F808
:101770003800A162A2850025E563222084F83A00A2
:10178000636B1748D863636B16481864636B16481D
:10179000D864606B134605650846666B216802468F
:1017A0003046091DFFF7BAF92068016841680091C9
:1017B00084F83850C16841F48071C1602068416983
:1017C00041F0010141612068416941F040014161FE
:1017D0000020F8BDFFE70120FBE70220F9E7000049
:1017E0008F1A0008CB1A0008451A00087047704786
:1017F00070B5044690F83900202830D169B362B33F
:1018000094F8380001282AD0012084F83800216299
:10181000A284E2840025E563212084F83900236B4B
:101820001048D863236B10481864236B0F48D864A2
:10183000206B134605652668206B321DFFF76EF995
:1018400021686FF04000086084F8385020684169D2
:1018500041F080014161002070BD012070BD022077
:1018600070BD0000D51A0008031B0008451A0008C7
:1018700070477047FEE70000154808B5016841F45D
:1018800080010160016801F480010091016841F468
:10189000001101600068002200F400100090114661
:1018A0001020FFF7CFFA1020FFF7BEFA00221146F2
:1018B0003A20FFF7C7FA3A20FFF7B6FA002211469E
:1018C0004620FFF7BFFABDE808404620FFF7ACBA54
:1018D000303802400D4808B5016841F080010160D0
:1018E000016801F080010091016841F0010101608F
:1018F000016801F001010091016841F002010160FD
:10190000006800F00200009008BD0000303802407E
:101910000C4810B50A4901604FF4E13141600021E3
:1019200081600C22C160C0E904128161C161FFF7CE
:1019300021FE002803D0BDE81040FEF75ABF10BDBD
:1019400000100140680100200D4810B50B490160EE
:101950000C49416000214FF480628160C0E90312AC
:101960000422C0E90521C161FFF704FE002803D06D
:10197000BDE81040FEF73DBF10BD00000044004030
:10198000A8010020A0860100FEE77047704770475D
:10199000FFF7F0B930B593B030216846FEF74AFC46
:1019A00014210CA8FEF746FC19480025016841F0F7
:1019B00080510160006800F0805011901548016866
:1019C00041F4804101600068022400F480401190DD
:1019D00001200090000401908001CDE9064006201E
:1019E0000890A820CDE9090404200B906846FFF771
:1019F00047FB0CA90F2081E831004FF4A0500F9055
:101A0000E002109005210CA8FFF74EFA13B030BD8C
:101A100040380240007000400548016841F4700100
:101A2000016003494FF00060803908607047000092
:101A300088ED00E010B5806B0021C185C184FFF7FF
:101A40000DFD10BD70B5846B2068406994F83910A5
:101A5000C0F3C0100025212904D118B1E584204627
:101A600000F062F82068406994F83A10C0F38010E2
:101A7000222904D118B1E585204600F047F8E06B33
:101A800040F01000E0632046FFF7E8FC70BD10B5A1
:101A90000146806B09680968C90513D40021C18516
:101AA0000168CA6822F48072CA6001684A6922F03B
:101AB00001024A6101684A6922F040024A6120211C
:101AC00080F83A10FFF792FE10BD10B5806BFFF75B
:101AD0008EFE10BD10B50146806B09680968C90506
:101AE0000CD40021C18401684A6922F080024A6155
:101AF0000068C16841F04001C16010BDFFF7B8FE49
:101B000010BD10B5806BFFF7B4FE10BD0168CA6848
:101B100022F49072CA6001684A6922F001024A61A7
:101B2000202180F83A1070470168CA6822F0C0028C
:101B3000CA60202180F83910704710B590F83A102B
:101B4000222901D0022010BD8168B1F5805F11D03B
:101B50000169002901681FD0496801F07F03816A8B
:101B60004A1C82620B70C18D491E0904090CC18593
:101B700018D02BE00269816A002A0268526805D0F9
:101B8000D2B20A80816A491C8162ECE7C2F3080282
:101B90000A80816A891CF7E74A68816A4B1C836264
:101BA0000A70E0E70168CA6822F02002CA60016892
:101BB000CA6822F48072CA6001684A6922F0010290
:101BC0004A61202180F83A10FFF710FE002010BD76
:101BD0002DE9F041044600680169E26821F44051B2
:101BE000114301612169A068E269084361691143F9
:101BF00008432168CA6849F20C639A430243CA60E9
:101C000020684169A26921F4407111434161E06992
:101C1000192764253226B0F5004F354A354920682A
:101C20004FF0000806D0884201D0904236D1FFF72D
:101C3000E5F935E0884201D0904202D1FFF7DEF9A4
:101C400001E0FFF7CBF961684A18A0FB070148EBF8
:101C50000803FEF7B7FA0146B0FBF5F00201B1FB4D
:101C6000F5F06FF01803584301EB800006EBC0005D
:101C7000B0FBF5F000F0F80002EB4002B1FBF5F02C
:101C8000584301EB800006EBC000B0FBF5F000F01C
:101C90000700216810448860BDE8F081FFF79EF9D5
:101CA00061688B0F8A00A0FB0701FEF78BFA0146E3
:101CB000B0FBF5F06FF01802504301EB800006EB2B
:101CC0000010B0FBF5F000F0F002B1FBF5F002EB14
:101CD0000012B1FBF5F06FF01803584301EB8000E0
:101CE00006EB0010B0FBF5F000F00F00D1E70000AC
:101CF000001401400010014090F83910212901D052
:101D0000022070478168B1F5805F016A0BD04A1CE0
:101D10000262026809785160C18C491E0904090CED
:101D2000C1840ED017E009880268C1F30801516030
:101D300001690029016A02D0491C0162ECE7891C93
:101D4000FBE70168CA6822F08002CA600068C168C7
:101D500041F04001C1600020704700000148FFF7DA
:101D60007FBB0000680100200E4808B500680168CC
:101D7000890602D50168416800910168C9060FD53E
:101D800040688DF800000748FFF73CFB2422064915
:101D90000448FFF7DFFCBDE80840034800F0A8BC9A
:101DA00008BD0000A801002018000020FEE7000088
:101DB00037B514460846064B6A46214600F0ECF853
:101DC00004466946002000F06AFC20463EBD000043
:101DD0009F2600080907090E002804DB00F1E02017
:101DE00080F80014704700F00F0000F1E02080F848
:101DF000141D704702E008C8121F08C1002AFAD15A
:101E000070477047002001E001C1121F002AFBD17A
:101E1000704700002DE9FF5F82B00021DDE904304A
:101E2000020DDDF840B0034318D044F61050A2F282
:101E3000FF3242431514119801281FD0A5EB0B0067
:101E4000401C5FEA000A4FF000064E4FDFF8389161
:101E5000B046504615D5CAF1000413E0119801248C
:101E60004AA3012801D16FEA0B010298119AC0E937
:101E70000031C0E9024206B0BDE8F09FCBF100009E
:101E8000DFE704460021404A491842EB0450CDE9FF
:101E9000001012E0E00707D032463B464046494674
:101EA000FEF7AFFA8046894632463B461046194651
:101EB000FEF7A7FA06460F466410002CEAD1DDE9CA
:101EC0000401DDE90023BAF1000F06DAFEF799FA02
:101ED00042464B46FEF795FA05E0FEF704FB424604
:101EE0004B46FEF700FB04460E460022284BFEF749
:101EF00081FB03D84FF0FF30014607E00022254B5D
:101F000020463146FEF7D6F9FEF75CFB102409E0C7
:101F1000002C0ADB0A220023FEF754F9039B30321F
:101F20001A55641E50EA0102F2D1641C039AC4F1EE
:101F300011031444119A012A03D0012208430DD140
:101F40000AE0084304D000204FF0110B119072E713
:101F5000A3EB0B056D1E0DE05B4504DD4FF00002A9
:101F600005F1010504E003DA4FF00002A5F10105D7
:101F7000002AECD002981199C0E90231C0E900456D
:101F800079E70000000014400000F03F300000003E
:101F90000000F0430000E03F2DE9FF4F95B09A4666
:101FA000884606460025EEE1252877D100242746FD
:101FB000F94A0121039400E0044316F8013F203B55
:101FC00001FA03F01042F7D130782A2811D06FF0CF
:101FD0002F033078A0F13002092A16D8039A44F072
:101FE000020402EB820203EB42021044761C0390CF
:101FF000EFE758F8042B0392002A03DA504244F426
:102000000054039044F00204761C30782E2816D138
:1020100016F8010F44F004042A280DD06FF02F02A7
:102020003078A0F13003092B09D807EB870302EBC6
:102030004303C718761CF3E758F8047B761C307806
:102040006C280FD006DC4C2817D068280DD06A28E1
:1020500014D104E0742810D07A280FD10DE044F494
:1020600000140AE044F4801401E044F4401472784F
:10207000824202D104F58014761C761C30786628E2
:102080000BD013DC582877D009DC002875D0452800
:10209000F6D04628F4D047281AD193E118E06328F7
:1020A00035D0642879D0652812D18BE1702873D09F
:1020B00008DC6728F1D069286FD06E280DD06F2812
:1020C00006D1ACE073282CD0752874D0782853D072
:1020D0005246179990476D1C54E1C4F302500228F0
:1020E00009D003280DD0D8F8001004280DD00D60B9
:1020F00008F1040846E1D8F80010EA17C1E90052D7
:10210000F6E7D8F800100D80F2E70D70F0E718F848
:10211000041B8DF8001000208DF80100EB46012013
:1021200003E058F804BB4FF0FF3061074FF00001A7
:1021300002D40DE009F101018946B9420FDA814567
:10214000F8DB1BF809100029F4D108E009F10101BE
:1021500089468142FADB1BF809100029F6D1039861
:102160005346A0EB090721463846179A00F080FA3B
:10217000284400EB090507E044E008E10DE01BF806
:10218000010B524617999047B9F10109F7D253460E
:1021900021463846179AF2E039E00A21C4F3025288
:1021A0004FF0000B0091022A06D058F8040BC1171B
:1021B000032A09D00AE023E008F1070020F0070213
:1021C000F2E80201904605E000B2C117042A01D1ED
:1021D00040B2C117002906DA0A460021404261EBED
:1021E00002012D2202E0220504D52B228DF80420C5
:1021F000012203E0E20701D02022F7E7914657E0F1
:102200000A2100E010214FF0000B00910BE010219B
:102210004FF0000B44F004040827009103E008206D
:102220004FF0000B0090C4F30252022A05D058F878
:10223000040B0021032A08D008E008F1070020F071
:102240000702F2E80201904603E080B2042A00D1BE
:10225000C0B24FF0000922072AD53278702A07D081
:10226000DDF800C08CF0100C5CEA0B0C05D00EE021
:1022700040228DF80420012208E050EA010306D034
:1022800030238DF804308DF8052002229146009B02
:1022900083F0080353EA0B030AD150EA010201D18B
:1022A000620705D530228DF804204FF001097F1E0A
:1022B0003278582A04D039A20C920CAA02920BE070
:1022C0003BA2F9E75B46009AFDF77CFF0C9B9B5C09
:1022D000029A521E0292137050EA0102F2D1029841
:1022E00004A9081A00F1200B600702D524F48034F9
:1022F00000E001275F4502DDA7EB0B0000E00020B6
:1023000000EB0B01009003984944401A0390E0034E
:1023100006D453462146179A039800F0A9F90544BC
:10232000002706E001A85246C05D179990476D1C32
:102330007F1C4F45F6DBE0030CD553462146179A28
:10234000039800F095F9054404E0302052461799AF
:1023500090476D1C0099481E00900029F5DC08E0AC
:102360000298029952460078491C029117999047A9
:102370006D1CBBF10001ABF1010BF1DC5BE100F086
:1023800065F90544761C307800287FF40DAE19B04D
:102390002846BDE8F08F00000928010030313233B3
:1023A0003435363738396162636465660000000091
:1023B000303132333435363738394142434445467B
:1023C00000000000600700D4062708F1070020F095
:1023D0000700F0E80223804603F0004C5FEA0C009F
:1023E00001D097A009E0200501D596A005E0E007FF
:1023F00001D095A001E0AFF24C001390307823F0AB
:10240000004365280CD006DC452809D046281DD09D
:1024100047287FD13BE0662818D067287AD136E07C
:102420000021112F01DB112000E0781CCDE9000113
:1024300004A90CA8FFF7EEFCDDE90D010C9A4FF0A2
:10244000000B07F10109109200914EE04FF000409F
:102450000097CDE9011004A90CA8FFF7DBFCDDE92A
:102460000D020C9B0F994FF0000B914610930092B8
:1024700011B9791C00EB0109B7EB090003D4C0F1D5
:10248000FF3B07F10109A9EB0700019042E0012F92
:1024900000DA01270021112F01DD112000E038466C
:1024A000CDE9000104A90CA8FFF7B4FCDDE90D019A
:1024B0000C9A00914FF0000BB946109221070FD4EF
:1024C000009A4A4503DA914601E0A9F10109B9F100
:1024D000010F05DD109AA9F10101515C3029F4D0FA
:1024E000B84202DA10F1040F03DA0121CDE901103C
:1024F00010E0002803DC8344A9EB000102E0411C4A
:10250000494500DD8946A0EB0B00401C01904FF0CF
:1025100000400290200705D40198484502DB4FF0A7
:10252000FF30019000208DF84B0002980DF14B0711
:10253000B0F1004F25D002200C902B200D90029876
:1025400000280CDA404202902D200D9007E00A216D
:102550000298FDF77AFE3031029007F8011D0C99C0
:10256000481E0C900029F2DC02980028EFD1791E59
:102570000D980870307800F0200040F0450007F812
:10258000020D11A8C01BC01D02901398007800B165
:10259000012000EB0901019801EBE0710298014470
:1025A0000398401A401E0390E00306D45346214688
:1025B000179A039800F05CF805441398007818B156
:1025C0005246179990476D1CE00323D55346214688
:1025D000179A039800F04CF805441BE0BBF1000F7C
:1025E00007DB0098584504DD1098179910F80B0088
:1025F00001E0179930205246904701980BF1010BEA
:10260000401E05F10105019004D12E205246179974
:1026100090476D1CB9F10001A9F10109DEDC05E06C
:1026200017F8010B5246179990476D1C0299481EE6
:1026300002900029F4DC53462146179A03989EE63F
:102640002D0000002B000000200000002DE9F041CB
:10265000044600251E461746880404D405E0394682
:102660002020B0476D1C641EF9D52846BDE8F081D6
:102670002DE9F041044600251E469046C80301D5C9
:10268000302700E02027880404D505E0414638467D
:10269000B0476D1C641EF9D52846BDE8F0810A6874
:1026A000531C0B601070704710480188A1F5B6717B
:1026B000B1F5A56F17D8428840F294618A4212D8CA
:1026C0004FF4B6739A420ED382888A420BD89A424C
:1026D00009D3C2888A4206D89A4204D3017A11B13A
:1026E000407A002801D100F0EBB870473C00002090
:1026F00010B504006DD0FEF737FB3649886220889C
:10270000C0F30A0021F8040F6078A278C00840EAFC
:102710004210C0F30A004880A078E278800940EABD
:102720008200227940EA8220C0F30A0021F8040CDA
:1027300020796279400840EAC210C0F30A0021F80B
:10274000020C6079C0F3011048716079800908714A
:10275000E088C8802089088160894881207B0873CF
:10276000607B4873E089C88100F001020A74C0F3FD
:1027700040024A74C0F380028A74C0F3C002CA7473
:10278000C0F300120A75C0F340124A75C0F38012FC
:102790008A75C0F3C012CA75C0F300220A76C0F36E
:1027A00040224A76C0F380228A76C0F3C022CA76DD
:1027B000C0F300320A77C0F340324A77C0F3803268
:1027C0008A77C00BC877208A0884BDE81040FFF7DD
:1027D0006BBF10BD3C0000208AB0FEF7D3FAFFF7B4
:1027E000D9F8FFF777F8FFF747F8FFF791F8FFF709
:1027F000ABF800F04BF8164CFEF7B6FAA16A401A97
:10280000142805D900F05CF812A000F085F81BE050
:10281000607C237CB4F90E20CDE90801CDE90623C4
:10282000607A0DF1080CB4F90C30B4F90A20618A11
:102830008CE80F00E188A088CDE90001237A628846
:102840002188114800F068F86420FEF79FF9D3E76B
:102850003C000020233D3D3D3D3D3D3D3D3D3D3D5A
:102860003D230D0A64627573206F7665722074696A
:102870006D650D0A233D3D3D3D3D3D3D3D3D3D3DAD
:102880003D230D0A00000000702900080A4810B519
:102890000168CA6842F02002CA600068C16841F05D
:1028A0001001C16000F00CF8BDE81040242203497B
:1028B0000148FEF74FBF0000A801002018000020CB
:1028C00010B5144C03214FF48060217224F8040BDE
:1028D00024F8020C6171208060800020E08020815B
:1028E000608120736073E08120746074A074E07470
:1028F00020756075A075E07520766076A076E0762C
:1029000020776077A077E0772084FEF72DFA606269
:1029100010BD00003C0000200FB40B4870B5094CFE
:1029200005AA251F22600499FFF742FA82B22A8085
:102930000020206004490548FEF75AFF70BC5DF88E
:1029400014FB000004000020680000206801002043
:10295000000610160006101600000000000000001F
:102960000102030406070809000000000102030435
:102970004C783D25640D0A4C793D25640D0A4C7355
:102980003D25640D0A52783D25640D0A52793D2596
:10299000640D0A52733D25640D0A4B65793D25642B
:1029A0000D0A4D783D25640D0A4D793D25640D0ACB
:1029B0004D7A3D25640D0A506C3D25640D0A507218
:1029C0003D25640D0A54696D653D25640D0A0000BE
:1029D000F02900080000002018000000F41D000885
:1029E000082A000818000020F0060000041E000855
:1029F00000000000000000000100000010000000C6
:082A0000000000000024F400B6
:040000050800018965
:00000001FF
