:020000040800F2
:10000000D00400209D01000827120008C910000834
:1000100025120008A9020008F913000800000000DA
:100020000000000000000000000000002B1200088B
:10003000D102000800000000291200082D1200085B
:10004000B7010008B7010008B7010008B7010008B0
:10005000B7010008B7010008B7010008B7010008A0
:10006000B7010008B7010008B7010008B701000890
:10007000B7010008B7010008B7010008B701000880
:10008000B7010008B7010008B7010008B701000870
:10009000B7010008B7010008B7010008B701000860
:1000A000B7010008B7010008B7010008B701000850
:1000B000B7010008B7010008B7010008B701000840
:1000C000B7010008B7010008B7010008B701000830
:1000D000B7010008B7010008B7010008B701000820
:1000E000B7010008B7010008B7010008B701000810
:1000F000B7010008B7010008B7010008B701000800
:10010000B7010008B7010008B7010008B7010008EF
:10011000B7010008B7010008B7010008B7010008DF
:10012000B7010008B7010008B7010008B7010008CF
:10013000B70100080000000000000000C502000830
:10014000AD020008B9020008B7010008B7010008B5
:10015000B7010008B7010008B7010008B70100089F
:10016000B7010008B7010008B7010008B70100088F
:10017000B7010008B70100080000000000000000FF
:10018000B7010008B7010008DFF80CD000F07AF8DA
:100190000048004739140008D00400200648804772
:1001A00006480047FEE7FEE7FEE7FEE7FEE7FEE75C
:1001B000FEE7FEE7FEE7FEE7B5120008890100084A
:1001C0002DE9F05F0546002092469B46884606468C
:1001D000814640241BE0284641464746224600F01F
:1001E00041F853465A46C01A914110D31146184659
:1001F000224600F028F82D1A67EB01084F462246E8
:100200000120002100F01FF817EB00094E41201ECD
:10021000A4F10104DFDC484631462A464346BDE8E6
:10022000F09FD2B201E000F8012B491EFBD27047CB
:100230000022F6E710B513460A4604461946FFF7B2
:10024000F0FF204610BD202A04DB203A00FA02F11C
:10025000002070479140C2F1200320FA03F31943B4
:1002600090407047202A04DB203A21FA02F0002156
:10027000704721FA02F3D040C2F1200291400843B6
:1002800019467047064C074D06E0E06840F0010350
:1002900094E8070098471034AC42F6D3FFF778FF94
:1002A0006C1400088C140008FEE70000014800F000
:1002B00012B8000010000020014800F00CB8000047
:1002C00010000020014800F006B8000010000020D7
:1002D0007047704770472DE9F05F054600680024BD
:1002E0004669D0F804908768D0F80CB0D0F810A018
:1002F000D0F81880F10748D0F90714D001218160A7
:10030000B80703D5284600F0CDF90CE0780702D5F0
:100310004FF4006407E0380702D54FF4805402E040
:10032000284600F0BEF9F80516D529684FF480700C
:100330008860B80503D5284600F0B6F90CE07805CA
:1003400002D544F4005407E0380502D544F4804453
:1003500002E0284600F0A7F9F80316D529684FF403
:1003600080308860B80303D5284600F09FF90CE080
:10037000780302D544F4004407E0380302D544F47E
:10038000803402E0284600F090F9300707D55FEA94
:10039000CB6004D52968102044F40074C86070074D
:1003A0004FF0080707D55FEA0B7004D52868C760CF
:1003B000284600F071F9B00706D52868C0688007A4
:1003C00002D0284600F069F9700607D55FEACA60D6
:1003D00004D52968102044F480640861B00607D56C
:1003E0005FEA0A7004D528680761284600F056F9CC
:1003F000F00606D528680069800702D0284600F07C
:100400004EF9B00308D55FEAC96005D52968102008
:100410004860284600F044F9F00307D55FEA097008
:1004200004D528684760284600F041F9300446D5D5
:100430005FEA497040D5F00504D55FEAC87001D085
:1004400044F00104B00504D55FEA887001D544F09A
:100450000204700504D55FEA487001D544F0040435
:10046000300529D518F0700F26D008F0700040280C
:1004700015D006DC102809D020280AD0302816D143
:100480000AE050280ED0602811D10EE044F0080494
:100490000DE044F010040AE044F0200407E044F0CA
:1004A000400404E044F0800401E044F480742868CF
:1004B000816921F070018161296804204860002C65
:1004C00005D0686A204368622846FFF703FFBDE84D
:1004D000F09F70B5040003D094F8200010B104E040
:1004E000012070BD204600F081F82068016821F0ED
:1004F0000201016000F0BEF90546052604E000F0A7
:10050000B9F9401B0A2811D8206840688007F6D442
:100510002068016841F00101016000F0ABF9054677
:100520000BE000F0A7F9401B0A2806D9606A40F4E6
:100530000030606284F82060D2E720684068C0071D
:10054000EFD0207E0128206801683DD021F0800195
:100550000160607E01282068016838D021F04001E8
:100560000160A07E01282068016833D021F02001BD
:100570000160E07E0128206801682ED041F0100162
:100580000160207F01282068016829D021F008013E
:100590000160607F01282068016824D021F00401F7
:1005A0000160D4E902010843D4E90412114308436D
:1005B0006168491E08432168C8610020606201200B
:1005C00084F82000002070BD41F08001C0E741F0B8
:1005D0004001C5E741F02001CAE721F01001CFE753
:1005E00041F00801D4E741F00401D9E710B586B025
:1005F000044614216846FFF71BFE24492068884200
:1006000041D123480021026842F080620260026802
:1006100002F080620592026842F000720260006897
:1006200000F0007005901A481038026842F002028B
:100630000260006800F0020005904FF44050009006
:100640000220CDE9010103200390092004906946AE
:10065000104800F02DF8022201213F2000F07AF925
:100660003F2000F069F900220121402000F072F9DA
:10067000402000F061F900220121412000F06AF9D8
:10068000412000F059F906B010BD0000006800409C
:10069000403802400004024070477047704770477E
:1006A0007047704770477047704770477047704792
:1006B0002DE9F84F00224FF0010803254FF00F0EEF
:1006C0000B6808FA02F42340A3426ED14E68012E53
:1006D00005D0022E03D0112E01D0122E12D1866821
:1006E0004FEA420C05FA0CF7BE43CF6807FA0CF745
:1006F000374387604668A6430C79C4F300149440DE
:1007000034434460C668570005FA07FC8C6826EA43
:100710000C06BC403443C4604C68022C01D0122C3F
:1007200013D1D40800EB8404A346D4F820905407D6
:100730004FEAD46A0EFA0AF629EA06090E6906FAA1
:100740000AF646EA0906CBF8206006680C7926EA24
:100750000C0604F00304BC40344304604C68E4001D
:1007600065D5364C266846F480462660246822F01B
:10077000030604F480440094314C3444A446D4F875
:1007800008489607370F0EFA07F6B4432D4EB042CD
:1007900001D1002624E02C4EB04201D101261FE0F9
:1007A0002A4EB04202D102261AE040E0284EB04262
:1007B00001D1032614E0274EB04201D104260FE0F8
:1007C000254EB04201D105260AE0244EB04201D1A7
:1007D000062605E0224EB04201D1072600E0082699
:1007E000BE402643CCF808681E4E34684F689C43D0
:1007F000FF0300D51C4334601A4C241D26684F6843
:100800009E43BF0300D51E432660164E083634684B
:100810004F689C43FF0200D51C433460114E0C36D8
:1008200034684F689C43BF0200D51C433460521C9F
:10083000102AFFF445AFBDE8F88F000044380240AD
:100840000030014000000240000402400008024065
:10085000000C024000100240001402400018024048
:10086000001C0240003C01400AB18161704709044C
:10087000FBE700000148806870470000000000208E
:1008800002488168027811448160704700000020AE
:100890000B4810B5016841F400710160016841F432
:1008A00080610160016841F480710160032000F003
:1008B00071F8002000F006F800F024F8002010BDC8
:1008C000003C024070B50D4D04464FF47A71287813
:1008D000B1FBF0F00A490968B1FBF0F000F07AFBD7
:1008E00048B9102C07D200222146501E00F032F8E1
:1008F00000206C6070BD012070BD00000000002071
:100900000C0000200B4882B0016841F48041016076
:10091000006800F4804000900648001F016841F024
:1009200080510160006800F080500090052002B006
:1009300000F030B844380240002809DB00F01F0204
:10094000012191404009800000F1E020C0F8001131
:1009500070470000F0B40E4B1B680C46C3F3022333
:10096000C3F10705042D00D90425191D072901D25B
:10097000002300E0DB1E012606FA05F1491E214096
:1009800099409E40761E16403143F0BC00F035BDC4
:100990000CED00E0064900F0070208684FF6FF037F
:1009A000184040EA0220034A1043086070470000E4
:1009B0000CED00E00000FA052DE9F0470E460500B9
:1009C00065D0DFF81481D8F80000F7B200F00F000E
:1009D000B04207D288F80070D8F8000000F00F008D
:1009E000B04254D128683D4C810712D5400703D549
:1009F000206840F4E05020602878000703D5206884
:100A000040F4604020602068A96820F0F0000843AE
:100A100020602878C0072DD030496868083901283F
:100A200012D0022813D0032811D0096889070029A1
:100A30002DDA216821F0030101432160FFF71AFF3D
:100A4000814641F2883A0EE009688903EFE70968B8
:100A50008901ECE7FFF70EFFA0EB0901514502D930
:100A60000320BDE8F0872068696800F00C00B0EB57
:100A7000810FEFD1D8F80010404601F00F01B142CC
:100A800007D90770006800F00F00B04201D00120C4
:100A9000E7E72878400705D52068E96820F4E050AA
:100AA000084320602878000706D52068296920F4CB
:100AB000604040EAC100206000F038F82168084A30
:100AC000C1F30311515CC84006490860064800683C
:100AD000FFF7F8FE0020C4E7003C0240083802405F
:100AE000521400080C0000200400002004480549AE
:100AF00000680968044AC1F38221515CC84070470C
:100B00000C0000200838024062140008044805491F
:100B100000680968044AC1F34231515CC84070471B
:100B20000C0000200838024062140008154810B577
:100B3000006810F00C02144813D01449042A0FD096
:100B4000082A0ED10F4C241F2268236802F03F02AE
:100B50005B0207D52068C0F38810A0FB010106E006
:100B6000084610BD2168C1F38811A1FB00010023D4
:100B7000FFF726FB2168C1F30141491C4900B0FB86
:100B8000F1F010BD083802400024F400001BB7004B
:100B90002DE9F84F04006ED02078DFF83C93C007B1
:100BA000A9F104054AD009F104000168C1F38101EB
:100BB000012908D00068C0F3810002280AD1D9F8C1
:100BC0000000400206D52868800337D560680028F9
:100BD000E1D033E06068B0F5803F10D0B0F5A02FD1
:100BE000286810D020F480302860286820F4802005
:100BF00028606068A8B1FFF73DFE06460DE0286852
:100C000040F48030F4E740F480202860F7E700BF2C
:100C1000FFF730FE801B642873D828688003F7D55F
:100C20000CE0FFF727FE064605E000BFFFF722FEB7
:100C3000801B6428F0D828688003F7D42078DFF878
:100C40009C8280074FF0000A3ED5A348001D016832
:100C500011F00C0F08D00068C0F3810002280BD1FE
:100C6000D9F80000400207D42868800716D5E0684C
:100C7000012800D112E02BE1E068B8B10120C8F8EA
:100C80000000FFF7F7FD064605E000BFFFF7F2FDA5
:100C9000801B0228C0D828688007F7D528682169FA
:100CA00020F0F80040EAC10028600DE0C8F800A07C
:100CB000FFF7E0FD064604E0FFF7DCFD801B02289D
:100CC0001FD828688007F7D42078000722D5824EE5
:100CD00083486169703671B101210160FFF7CAFD77
:100CE000074604E0FFF7C6FDC01B022809D830689C
:100CF0008007F7D50EE0C0F800A0FFF7BBFD074660
:100D000005E082E0FFF7B6FDC01B02287DD8306801
:100D10008007F7D42078400768D5DFF8BCB10027FA
:100D20000BF13C0BDBF80000C0000BD4DBF800102B
:100D300041F08051CBF80010DBF80000012700F0F3
:100D400080500090674E3068C00510D4306840F481
:100D500080703060FFF78EFD009005E0FFF78AFDA0
:100D60000099401A022850D83068C005F6D55A4E6E
:100D7000A0686C3601280FD00528306810D020F00C
:100D800001003060306820F004003060A068B8B125
:100D9000FFF770FD00900FE0306840F00100F4E7CD
:100DA00040F004003060F7E7FFF764FD0099411A56
:100DB00041F28830814266D830688007F4D50EE071
:100DC000FFF758FD009007E0FFF754FD0099411A26
:100DD00041F28830814256D830688007F4D42FB170
:100DE000DBF8001021F08051CBF80010A069C8B3E7
:100DF0003949091D0968C1F3810102294AD0022835
:100E0000504607D0C8F8600000E03CE0FFF732FD34
:100E100004463BE04746C8F86000FFF72BFD064656
:100E200005E000BFFFF726FD801B02282BD82868AD
:100E30008001F7D4D4E907010843A16A2A4A490886
:100E400002EB0141626A41EA8211084394F82C10D6
:100E500040EA0161C9F8001001203866FFF70AFD79
:100E6000044606E036E000BFFFF704FD001B022841
:100E700009D828688001F7D52CE000BFFFF7FAFCFD
:100E8000001B022802D90320BDE8F88F28688001E2
:100E9000F4D41FE00128F7D0D9F80000E26900F48B
:100EA0008001914214D1226A00F03F0191420FD19A
:100EB00047F6C071626A0140914209D1A26A00F40A
:100EC0004031914204D1E16A00F07060884201D063
:100ED0000120D9E70020D7E704380240000047424C
:100EE000800E4742007000400000FFFF70B5040014
:100EF00005D00025A56294F8510010B106E001204C
:100F000070BD84F85050204600F030F8022084F87C
:100F100051002068016821F040010160D4E901011D
:100F20000843D4E903121143084361690843218B44
:100F300001F400710843E1690843216A0843A16A8A
:100F4000084321680860A069042101EA1040616A31
:100F50000843216848602068C16921F40061C161CB
:100F60006565012084F85100002070BD10B586B081
:100F7000044614216846FFF75BF91349206888424C
:100F800020D112480021026842F4805202600068B9
:100F900000F4805005900D481438026842F00102B8
:100FA0000260006800F001000590E020009002203F
:100FB000CDE901010320039005200490694604480F
:100FC000FFF776FB06B010BD003001404438024008
:100FD0000000024010B5401EB0F1807F01D3012017
:100FE00010BD4FF0E02460610F21601700F005FA9A
:100FF0000020A06107202061002010BD70B5040012
:1010000004D094F83900002510B106E0012070BD2D
:1010100084F83850204600F023F8242084F8390062
:101020002068C16821F40051C160204600F050F9E9
:101030002068016921F4904101612068416921F033
:101040002A0141612068C16841F40051C160E56333
:10105000202084F8390084F83A00002070BD000098
:1010600010B586B0044614216846FFF7E1F813492D
:101070002068884220D112480021026842F0100204
:101080000260006800F0100005900D4814380268F6
:1010900042F002020260006800F002000590C020E9
:1010A00000900220CDE90101032003900720049065
:1010B00069460448FFF7FCFA06B010BD0010014075
:1010C0004438024000040240FEE700000F4810B51B
:1010D0000D4901600321416000214FF4002281602D
:1010E000C0E903124FF440124261017641768176E5
:1010F000C17601774177FFF7ECF9002803D0BDE80E
:101100001040FFF7E6B810BD006800401000002056
:1011100030B587B014216846FFF78AF81E48016889
:1011200041F080010160016801F0800105910168D2
:1011300041F001010160016801F0010105910168C0
:1011400041F004010160016801F0040105910168AA
:1011500041F0020101600068104D00F002000590AE
:10116000012210212846FFF77FFB10200124CDE942
:1011700000040320CDE9024069462846FFF798FAAB
:10118000022000900648CDE9010469460548FFF7B2
:101190008FFA07B030BD000030380240000802402E
:1011A00000001110000402400F4810B50D49016005
:1011B0004FF48271416000218160C1604FF4007280
:1011C0000161C0E90512C1610162416281620A21C7
:1011D000C162FFF78BFE002803D0BDE81040FFF787
:1011E00078B810BD00300140380000200C4810B520
:1011F0000A4901604FF416514160002181600C22C0
:10120000C160C0E904128161C161FFF7F7FE0028E7
:1012100003D0BDE81040FFF75CB810BD00100140DE
:1012200090000020FEE7704770477047FFF728BB2B
:1012300030B593B030216846FEF7FAFF14210CA8B0
:10124000FEF7F6FF19480025016841F08051016062
:10125000006800F0805011901548016841F4804109
:1012600001600068022400F4804011900120009089
:10127000000401908001CDE9064006200890A820D6
:10128000CDE9090404200B906846FFF781FC0CA906
:101290000F2081E831004FF4A0500F90E002109031
:1012A00005210CA8FFF788FB13B030BD4038024081
:1012B000007000400548016841F470010160034975
:1012C0004FF00060803908607047000088ED00E052
:1012D0002DE9F041044600680169E26821F44051BB
:1012E000114301612169A068E26908436169114302
:1012F00008432168CA6849F20C639A430243CA60F2
:1013000020684169A26921F4407111434161E0699B
:10131000192764253226B0F5004F354A3549206833
:101320004FF0000806D0884201D0904236D1FFF736
:10133000EDFB35E0884201D0904202D1FFF7E6FB99
:1013400001E0FFF7D3FB61684A18A0FB070148EBF7
:101350000803FEF735FF0146B0FBF5F00201B1FBD3
:10136000F5F06FF01803584301EB800006EBC00066
:10137000B0FBF5F000F0F80002EB4002B1FBF5F035
:10138000584301EB800006EBC000B0FBF5F000F025
:101390000700216810448860BDE8F081FFF7A6FBD4
:1013A00061688B0F8A00A0FB0701FEF709FF014669
:1013B000B0FBF5F06FF01802504301EB800006EB34
:1013C0000010B0FBF5F000F0F002B1FBF5F002EB1D
:1013D0000012B1FBF5F06FF01803584301EB8000E9
:1013E00006EB0010B0FBF5F000F00F00D1E70000B5
:1013F0000014014000100140FEE70907090E002813
:1014000004DB00F1E02080F80014704700F00F00CA
:1014100000F1E02080F8141D704702E008C8121F98
:1014200008C1002AFAD170477047002001E001C1CD
:10143000121F002AFBD17047FFF72AFAFFF7F8FEC8
:10144000FFF766FEFFF7D2FEFFF740FEFFF7ACFEA8
:10145000FEE7000000000000000001020304060790
:101460000809000000000102030400008C140008B9
:1014700000000020100000001A1400089C1400084E
:1014800010000020C00400002A1400080100000021
:0C14900010000000000000000024F40028
:040000050800018965
:00000001FF
